:020000040800F2
:10000000E02D002001010008814300083530000880
:10001000AD420008E909000825480008000000007A
:1000200000000000000000000000000089450008FA
:10003000F909000800000000AD4400088B450008E5
:100040001B0100081B0100081B0100081B01000820
:100050001B0100081B0100081B0100081B01000810
:100060001B0100081B010008FB0900081B01000818
:100070001B010008ED0900081B0100081B01000816
:100080001B0100081B010008910900081B01000862
:100090001B0100081B0100081B010008010A0008E1
:1000A0001B0100081B0100081B0100081B010008C0
:1000B0001B0100081B010008F54500081B01000892
:1000C0001B0100081B0100081B0100081B010008A0
:1000D0001B0100081B0100081B0100081B01000890
:1000E0001B0100081B0100081B010008DFF80CD0F1
:1000F00000F03CFC004800479D510008E02D002026
:100100000648804706480047FEE7FEE7FEE7FEE7B1
:10011000FEE7FEE7FEE7FEE7FEE7FEE7F145000843
:10012000ED000008202A04DB203A21FA02F0002129
:10013000704721FA02F3D040C2F1200291400843F7
:1001400019467047D2B201E000F8012B491EFBD2DC
:1001500070470022F6E710B513460A4604461946D2
:10016000FFF7F0FF204610BD421C10F8011B0029CC
:10017000FBD1801A7047F0B480EA0102D40F42002C
:10018000B2EB410F02D20246084611464A0042D065
:10019000C30DDDB2C1F3C752AD1A202D35DAC1F35C
:1001A000160141F4000204B15242C5F1200602FAE0
:1001B00006F12A411044B3EBD05F23D0C4B1012D26
:1001C000A0EBC35009DCF0BC4FF0004202EAC3527E
:1001D000DBB200F5000000F00EBB400000F18070C3
:1001E00000EBC350A0F1807040EAD170490009E0F3
:1001F000490841EAC071A0EBC35000F50000400877
:1002000000EBC350F0BC00F0EDBA6142012202EBFA
:100210004101001BF6E7F0BC704781F00041AAE7FE
:1002200080F00040A7E780EA010210B502F0004329
:10023000400022D04A001FD0010E01EB1261C0F332
:100240005600C2F3560240F4000042F40002A0FB44
:10025000022000047F39140400D0401C50EA1240F0
:1002600001D44000491EC2B20C0604EBD010401C61
:100270004008802A02D003E0002010BD20F00100D9
:10028000002900DA0020184310BD30B480EA0102D2
:1002900002F0004530F0004221F0004013D090B150
:1002A000C30DD40DC2F31601C0F31600E41A41F4D5
:1002B000000140F400027D34914201D3641C00E04F
:1002C0004900002C02DA30BC002070474FF40000D7
:1002D0000023914201D3891A034340084FEA4101A8
:1002E000F7D151B1914202D14FF0004105E002D265
:1002F0004FF0010101E06FF0010103EBC45028440D
:1003000030BC00F06FBA420005D0C0F3C752524271
:10031000914201DC0020704700EBC15070472DE98D
:10032000FE4F804681EA0300C00F0C46009021F08A
:10033000004123F00045B8EB0200A94105D2404638
:10034000214690461C460B46024623F000401043CF
:1003500047D0270DC7F30A00C3F30A510290401A91
:10036000019040286BDAC3F3130040F4801B00981F
:10037000924620B10023D2EB030A63EB0B0B0198EA
:100380005946C0F14002504600F00BFA06460D46B1
:1003900050465946019A00F013FA10EB08006141EB
:1003A000002487EA115284EAE7731A4340D0009A86
:1003B00062B3019A012A4FEA075215DC001B61EB78
:1003C00002014FF0004202EA0752CDE90042001C50
:1003D00041F5801132462B4600F04AFA03B0BDE8E1
:1003E000F08F40462146F9E7001B61EB0201001C3B
:1003F00041F5801300185B412018A2F5001747EB68
:10040000030140EAD570B6196D4111E06D084FEA5D
:10041000360645EAC0754FEA0752001B61EB020140
:10042000001C41F5801149084FEA30000019514184
:1004300032462B4603B0BDE8F04F00F00ABA0098F0
:10044000012240000023D0EB020263EBE07300982E
:1004500021464FEAE074B8EB000061EB0401E9E7E4
:1004600083F000435BE781F0004158E72DE9FE4F40
:1004700081EA030404F0004421F0004100944FF0AD
:10048000000B23F0004350EA01045ED052EA03045B
:100490005BD0C3F30A54C1F30A552C44A4F2F334DD
:1004A0000194A0FB0254C1F3130141F48011C3F382
:1004B000130343F4801301FB024400FB034E840A40
:1004C000970A44EA815447EA8357A4FB07680295D8
:1004D0008D0A05FB07854FEA932C04FB0C54270576
:1004E000029D4FEA065847EA1637B5EB08056EEB52
:1004F000070C870E920E47EA811742EA8312A7FB88
:100500000201B6EB0B0164EB00042B0D43EA0C3344
:100510005E1844EB1C50DA465146E7FB0201C5F376
:1005200013044FEA0B3343EA14534FEA0432019C9D
:1005300043EA0603A4F10C040294009CCDE900B444
:1005400000F096F903B0BDE8F08F00200146F9E70E
:100550002DE9F04D81EA030404F0004B21F0004541
:1005600014464FF0000A23F0004150EA050220D063
:1005700054EA01021DD0C5F30A570246C5F313031E
:10058000C1F31300C1F30A5640F4801543F48013FD
:10059000A7EB0608101BD64608F2FD3873EB0500E2
:1005A00002D308F1010801E092185B41B8F1000F95
:1005B00003DA00200146BDE8F08D00204FF48011E1
:1005C000064684460EE0171B73EB050705D3121B86
:1005D00063EB050306434CEA010C49084FEA30007F
:1005E00092185B4150EA0107EDD152EA030012D0A4
:1005F00082EA040083EA0501084305D0101BAB41E1
:1006000006D20122002306E000224FF0004302E060
:100610006FF0010253101AEB06004CEB085110EB7F
:100620000A0041EB0B01BDE8F04D00F012B9C10F1B
:1006300080EAE0700844CA079623002100F0DBB886
:1006400096230022114600F0D6B80EB540F2334191
:1006500002910021CDE900110A460B4600F008F98D
:1006600003B000BD20F00040C10DC0F3160040F4FF
:1006700000007F2901DA00207047962903DCC1F1D0
:100680009601C840704796398840704700F0004294
:1006900030F000400AD0C10D01F56071C0F31600C2
:1006A00042EA0151C2084007114370470020014649
:1006B000704701F0004330B421F0004150EA0102DC
:1006C00006D00A0DA2F56072C1F31301002A02DC04
:1006D00030BC00207047440F44EAC104C100E01858
:1006E00030BC00EBC25000F07DB80000002801DBF8
:1006F000C0F10040002901DBC1F100418142704797
:10070000002801DBC0F10040002901DBC1F10041FC
:100710008842704730B50B46014600202022012454
:1007200009E021FA02F59D4205D303FA02F5491BBF
:1007300004FA02F52844151EA2F10102F1DC30BDD5
:100740002DE9F05F0546002092469B468846064606
:10075000814640241BE02846414647462246FFF793
:10076000E1FC53465A46C01A914110D3114618462F
:10077000224600F016F82D1A67EB01084F46224674
:100780000120002100F00DF817EB00094E41201E5A
:10079000A4F10104DFDC484631462A464346BDE861
:1007A000F09F202A04DB203A00FA02F10020704773
:1007B0009140C2F1200320FA03F31943904070479F
:1007C000202A06DBCB17203A41FA02F043EAE07315
:1007D00006E041FA02F3D040C2F120029140084302
:1007E000194670470029A8BF7047401C490008BF40
:1007F00020F00100704710B4B0FA80FC00FA0CF051
:1008000050EA010404BF10BC704749B1CCF1200488
:1008100021FA04F411FA0CF118BF01212143084315
:10082000A3EB0C01CB1D4FEA00614FEA102042BF41
:10083000002010BC704700EBC35010440029A4BF37
:1008400010BC7047401C490008BF20F0010010BCDC
:10085000704710B5141E73F1000408DA401C41F112
:10086000000192185B411A4301D120F0010010BD34
:100870002DE9F04D92469B4611B1B1FA81F202E0AA
:10088000B0FA80F220329046FFF78BFF04460F4605
:1008900040EA0A0041EA0B0153465A46084313D086
:1008A000114653EA010019D0C8F140025046FFF743
:1008B00039FC05460E46504659464246FFF771FF41
:1008C000084305D0012004E020463946BDE8F08DFC
:1008D0000020054346EAE0762C4337430A98630537
:1008E000E40AA0EB08000022FD0A44EA47540A305B
:1008F00002D500200146E9E7010510196941DDE94B
:10090000084500196941BDE8F04DA2E7C1F30A525C
:10091000C1F3130140F2FF3341F480119A4202DA2D
:1009200000200146704740F233439A42A2F233421C
:1009300002DC5242FFF7F6BBFFF733BF30B5041EAF
:1009400071F1000404DB4FF00044404264EB01010C
:10095000141E73F1000405DB1C464FF000435242A5
:1009600063EB0403994208BF904230BD064C074D2B
:1009700006E0E06840F0010394E80700984710346F
:10098000AC42F6D3FFF7B6FB1074000830740008D1
:10099000014800F0CCBD0000CC00002070B504463A
:1009A00000688168C943C9071CD1816821F0010131
:1009B000816001F01BF905460FE000BF01F016F958
:1009C000401B022809D9A06A40F01000A062E06A2A
:1009D00040F00100E062012070BD20688068C043E3
:1009E000C007EBD0002070BDFEE70000014800F01A
:1009F000D5BE0000880200207047102000F0E8BF3C
:100A0000202000F0E5BF0000094B10B593F900402D
:100A1000944200DD197093F900408C4200DA1A709C
:100A20005978002903D0197801700020587010BD42
:100A3000140000200149C870704700001400002015
:100A4000704700007CB54FF6E0764FF4A0740021AB
:100A500033462246084602F085FD33462246EF2102
:100A6000002002F07FFD334622461E21002002F0C6
:100A700079FD33462246A021002002F073FD0021BB
:100A80003346F022084602F089FE3346F022002168
:100A9000601E02F083FE3346F0220021692002F03E
:100AA0007DFE3346F0220021D52002F077FE00259E
:100AB000012433460322462147A0CDE9004502F038
:100AC00053FE33460322B22144A0CDE9004502F093
:100AD0004BFE334603224FF48E7141A0CDE9004511
:100AE00002F042FE3346282203213EA0CDE9004514
:100AF00002F03AFE3346502203213BA0CDE90045E7
:100B000002F032FE33467822032138A0CDE90045B9
:100B100002F02AFE334628226C2132A0CDE900459E
:100B200002F022FE334650226C212FA0CDE9004571
:100B300002F01AFE334678226C212CA0CDE9004544
:100B400002F012FE33462822D92126A0CDE9004525
:100B500002F00AFE33465022D92123A0CDE90045F8
:100B600002F002FE33467822D92120A0CDE90045CB
:100B700002F0FAFD3346AA2203211DA0CDE900456B
:100B800002F0F2FD3346AA226C211BA0CDE90045FC
:100B900002F0EAFD3346AA22D92119A0CDE9004589
:100BA00002F0E2FDCDE9004603220023114616A023
:100BB00002F0DAFD334603226C2113A0CDE9004593
:100BC00002F0D2FD33460322D9210FA0CDE9004522
:100BD00002F0CAFD7CBD0000435600004341000006
:100BE00043500000563A0000413A0000503A0000DD
:100BF000565F5365743A0000415F5365743A0000D4
:100C0000505F5365743A00004F4646002DE9F04F9F
:100C1000DFF8B483064687B02021404600F0D4FFB9
:100C20000127EA4D00244FF6E07990B93078162874
:100C30000FD13470CDE900790023AA226C21E4A001
:100C400002F092FD2F732021404600F0BDFF0028E6
:100C5000F9D0287B002870D02021DB4800F0B4FFB9
:100C600098B9687B88B9162030702C73CDE9007470
:100C70004B46AA226C21D6A002F076FDD24E20214E
:100C8000304600F0A1FF0028F9D0DFF84CA3022184
:100C9000504600F099FFC8BB56460221304600F08E
:100CA00093FF0028F9D0E87930B1012812D002284A
:100CB0001ED0032838D12AE000235022E3217520DA
:100CC00002F050FC4B460C22E321752002F04AFC56
:100CD000EF7129E000235022E321752002F042FC4D
:100CE0004B460C22E321852002F03CFC02200CE064
:100CF00000235022E321752002F034FC4B460C22E5
:100D0000E321A52002F02EFC0320E8710CE0002373
:100D10005022E321752002F025FC4B460C22E321F2
:100D2000B52002F01FFCEC71E87938B101280AD037
:100D300002284FD003280CD151E042E1A3480922F8
:100D400000210B3003E0A148092200210830FFF701
:100D50005BFE95F90B00FFF76AFCA049FFF795FAD7
:100D6000804695F90A00FFF762FC9D49FFF78DFA6E
:100D7000064695F9080095F9091000EB800001EB93
:100D80004000FFF754FC3146FFF7F5F94146FFF705
:100D9000F2F96862FFF77AFC02468C480B4691A193
:100DA0003C3003F041FD89483C30FFF7DDF9A046B7
:100DB000864ACDE90098C3B24C463C32C821732024
:100DC000029703F059F804215646504600F0FCFE05
:100DD00050B121E07D48092200210930B7E77B4866
:100DE000092200210A30B2E7687B4FF0000390F03F
:100DF000010068734FF003024FF06C0101D07BA03B
:100E000000E07BA0CDE9007402F0AEFC0421304686
:100E100000F0DAFE0028F9D001223221754803F0F3
:100E200081FCDFF8D4A1DFF8D4B168B34FF480714E
:100E3000654800F0C9FE38BB02F06AFFA86202F004
:100E4000D7FFE862A96AFFF7EEF928634FF4004183
:100E50006B4800F0BEFE687B80B1CDE904A8404637
:100E6000684B69498DE80B08D5E9091000234FF458
:100E70007A6203F087FA2882034600E0002300220A
:100E80000121104603F0ACF8687BA946F0B35F4A35
:100E9000D9F82C104846914208DB5149826A8A42AF
:100EA00004DC018A40F6C412914231D9414680F8EF
:100EB0000D80574D574A8DE82608CDE904A7002339
:100EC0004FF47A621946D9F8280003F05BFACDE9AD
:100ED0000074002303226C2145A002F045FC00258C
:100EE0004FF4004701223946304600F07AFEC82010
:100EF00000F02CFD00223946304600F072FEC8207A
:100F000000F024FD6D1CEDB2052D00E000E0E9D3FA
:100F1000384801224FF4FA710C3803F003FC002822
:100F20004FD04E46D9F82800FFF7B0FB02462748BD
:100F30000B4639A13C3003F077FC24483C30FFF7E6
:100F400013F9C3B24FF4FC60CDE900081F4A4546CF
:100F50003C3255218C20CDF8088002F08DFFF06ADC
:100F6000FFF794FB024619480B462BA13C3003F0D7
:100F70005BFC16483C30FFF7F7F8144AC3B2CDE9E2
:100F800000453C322D218C20029502F075FF306B1C
:100F9000FFF77CFB02460D480B461FA13C3003F0D7
:100FA00043FC0A483C30FFF7DFF8C3B24AF6E5706D
:100FB000CDE90005054A7D213C328C20029502F0E6
:100FC0005BFF07B0BDE8F08F000C0140400000203F
:100FD000415F5365743A0000000801400000C842B8
:100FE000000020412530352E326600004F4E200093
:100FF0004F464600C0000020CDCC4C3D8FC2753C12
:10100000001001400000724200008D42CDCCCC3D6A
:101010000000A4410000F4412530362E3366000064
:101020002DE9F04FDFF8B483064687B02021404613
:1010300000F0CAFD0127EA4D00244FF6E07A90B98E
:1010400030780B280FD13470CDE9007A0023AA2222
:101050000321E4A002F088FB6F712021404600F0DC
:10106000B3FD0028F9D06879002870D02021DB4832
:1010700000F0AAFD98B9A87988B90B2030706C717E
:10108000CDE900745346AA220321D6A002F06CFBDE
:10109000D24E2021304600F097FD0028F9D0DFF82D
:1010A0004C930221484600F08FFDC8BB4E460221FA
:1010B000304600F089FD0028F9D0287830B10128A9
:1010C00012D002281ED0032838D12AE00023502253
:1010D000E3210C2002F046FA0C225346E32110468D
:1010E00002F040FA2F7029E000235A22E3210C205D
:1010F00002F038FA53460C22E3211C2002F032FAA7
:1011000002200CE000235A22E3210C2002F02AFAEC
:1011100053460C22E3213C2002F024FA03202870DD
:101120000CE000235A22E3210C2002F01BFA534664
:101130000C22E3214C2002F015FA2C70287838B1EB
:1011400001280AD002284FD003280CD151E042E1F7
:10115000A34809220021001D03E0A1480922002123
:10116000401CFFF751FC95F90400FFF760FAA04915
:10117000FFF78BF8804695F90300FFF758FA9D4971
:10118000FFF783F8064695F9010095F9021000EB88
:10119000800001EB4000FFF74AFA3146FEF7EBFF13
:1011A0004146FEF7E8FF6861FFF770FA02468C4897
:1011B0000B4691A1343003F037FB89483430FEF7F9
:1011C000D3FFA046864ACDE900A8C3B254463432C4
:1011D000C8210A20029702F04FFE04214E464846DD
:1011E00000F0F2FC50B120E07D4809220021801C73
:1011F000B7E77B4809220021C01CB2E7A8794FF06D
:10120000030290F00100A8714FF00003114601D0D5
:101210007BA000E07BA0CDE9007402F0A5FA0421D8
:10122000304600F0D1FC0028F9D001223221764866
:1012300003F078FADFF8D4A1DFF8D4B170B34FF43B
:101240008071664800F0C0FC40BB02F061FDA861FF
:1012500002F0CEFDE861A969FEF7E5FF28624FF4D0
:1012600000416C4800F0B5FCA87988B16B4801A931
:10127000694B009781E80908CDE904A800234FF4E1
:101280007A626969E86903F07DF8E881034600E065
:10129000002300220121104602F0A2FEA879A946EF
:1012A000F0B35F49D9F81C004D46884208DB51492C
:1012B000AA698A4204DCE98940F6C412914231D914
:1012C00085F80680CDE904A7544901AA524B00973E
:1012D00082E80A0800234FF47A62696903F052F841
:1012E000E881CDE9007403220023114645A002F0F5
:1012F0003BFA00254FF4004701223946304600F002
:1013000070FCC82000F022FB00223946304600F075
:1013100068FCC82000F01AFB6D1CEDB2052D00E042
:1013200000E0E9D3384801224FF4FA710C3803F099
:10133000F9F900284FD04E46D9F81800FFF7A6F962
:10134000024627480B4637A1343003F06DFA244893
:101350003430FEF709FFC3B24FF4FC60CDE900085A
:101360001F4A4546343255212320CDF8088002F02B
:1013700083FDF069FFF78AF9024619480B4629A157
:10138000343003F051FA16483430FEF7EDFE144ABB
:10139000C3B2CDE9004534322D212320029502F05D
:1013A0006BFD306AFFF772F902460D480B461DA12E
:1013B000343003F039FA0A483430FEF7D5FEC3B2B0
:1013C0004AF6E570CDE90005054A7D213432232037
:1013D000029502F051FD07B0BDE8F08F000C01400E
:1013E00040000020565F5365743A00000008014039
:1013F0000000C842000020412530352E3266000032
:101400004F4E20004F464600A8000020CDCC4C3D5A
:101410008FC2753C001001400000A4410000D04084
:10142000CDCCCC3D2530362E336600007047000011
:10143000F8B50024009490F824202546012A12D003
:10144000012280F824204A681F23072A0DD206684B
:10145000776B521E02EB820293409F430B689340CE
:101460001F43776319E00220F8BD06680D2A0AD2EF
:10147000376BD21F02EB820293409F430B6893406D
:101480001F43376309E0F76A0D3A02EB820293408B
:101490009F430B6893401F43F7620A68072306685F
:1014A0000A2A0AD3F7680A3A02EB420293409F43A2
:1014B0008B6893401F43F76008E0376902EB4202F4
:1014C00093409F438B6893401F4337610A68102AFB
:1014D00001D0112A20D1124B02689A4217D1936889
:1014E0001B0219D4936843F4000393600968102920
:1014F00012D10C490C4A0968B1FBF2F101EB8101F0
:10150000490000E0491E00910029FBD104E0816AF6
:1015100041F020018162012480F824502046F8BD6A
:10152000002401409000002040420F00704710B599
:10153000044600684168890626D50168890723D5D5
:10154000A16AC90603D4A16A41F40071A16281684D
:10155000C1F34241072910D1217B71B9416821F0C3
:1015600020014160A06A20F48070A062A06AC004DB
:1015700003D4A06A40F00100A0622046FFF7D6FF26
:1015800021686FF0120008602068416809062ED5B6
:10159000016849072BD5A16AC90603D4A16A41F4A1
:1015A0000051A1628168C1F30231072909D0416865
:1015B000490515D48168C1F34241072910D1217B27
:1015C00071B9416821F080014160A06A20F4805027
:1015D000A062A06AC00503D4A06A40F00100A06226
:1015E0002046FFF723FF21686FF00C000860206899
:1015F000416849060DD50068C0070AD0A06A40F4CA
:101600008030A062204600F093F821686FF001005E
:10161000086010BD2DE9F0414FF0000704003D4681
:101620007ED0A06A002628B9E66284F824602046AD
:1016300000F080F82046FFF7B1F9A16AC90600D48E
:1016400020B1A06A40F01000A06269E0A16A21F414
:10165000885141F00201A1626268E169237B0A437B
:1016600047EA43010A43A1684FF48077B94209D0A1
:10167000012907D05FF0000194F814C0BCF1010FFC
:1016800002D00AE03946F7E7F3B1A36A43F020033A
:10169000A362E36A43F00103E3622368D3F804C062
:1016A0002CF4694C4CEA010CC3F804C021688B6827
:1016B000DFF870C003EA0C0313438B60A168B942E2
:1016C0000BD0012909D00CE0DFF85CC0A3690CEB5A
:1016D00043330B4343F40061DFE7218A0D05A5F591
:1016E00080152168CB6A23F470032B43CB622168F9
:1016F00089680E4B1940914208D1E662A16A21F037
:10170000020141F00101A162BDE8F081A06A20F070
:10171000020040F01000A062E06A40F00100E062C8
:101720000120F1E7FDF7E1FF00E0FFFFFE0E1FFFE4
:101730007047000000B585B0002100910191029131
:10174000039100681249884220D11248816941F40E
:1017500000718161816901F400710491816941F036
:10176000040181618069694600F004000490012051
:10177000009003200190084800F036F9002211463D
:10178000122000F051FD122000F040FD05B000BD18
:101790000024014000100240000801402DE9F05FE4
:1017A000C16B0C6801680B68D0F840C0042202FAD3
:1017B0000CF2494DDFF824A1494E4A4FDFF828B119
:1017C000DFF828E122422CD05A072AD50A6892066F
:1017D00003D40A6822F004020A600168A94201D118
:1017E000042219E0514501D1402215E0B14202D155
:1017F0004FF4806210E0B94202D14FF480420BE016
:10180000594502D14FF4802206E0714502D14FF4D0
:10181000800201E04FF080622F4908394A60C16AB6
:101820003BE04FF0020808FA0CF818EA040F4FF0FA
:1018300000094FF0010235D05FEA837832D50B689A
:101840009B0605D40B6823F00A030B6080F8212067
:101850000168A94201D1022219E0514501D120229B
:1018600015E0B14202D14FF4007210E0B94202D14A
:101870004FF400520BE0594502D14FF4003206E01C
:10188000714502D14FF4001201E04FF0007212498D
:1018900008394A6080F82090816A00291AD0BDE892
:1018A000F05F0847082505FA0CF5254212D01B0702
:1018B00010D50B6823F00E030B6090F84010C36B3B
:1018C00002FA01F15960826380F8212080F82090AB
:1018D000016BE2E7BDE8F09F080002401C000240F7
:1018E0003000024044000240580002406C000240B8
:1018F00030B528B308C8134914221944B1FBF2F1DA
:101900008900C16310498163022141771A6843F657
:10191000F0718A43D0E900142143D0E902452C43F9
:1019200021430469214344692143846921431143CC
:10193000196000214163012242770177084630BDDA
:10194000012030BDF8FFFDBF0000024070B5044625
:1019500000F04CF90546601C02D0044800780444AD
:1019600000F044F9401BA042FAD370BD840000206F
:1019700070B50125144C102803D0202800D1A57083
:1019800070BD0821114800F01FF9002160B1A28844
:10199000E078121AA2802278101A2070B4F904009C
:1019A00010F5FA4F0CDD0CE02278E078024422704A
:1019B000A2881044A080B4F90400B0F5FA4F00DB0F
:1019C000A180657070BD000014000020000C014073
:1019D000044910B50A68024202D00860FFF7C8FF48
:1019E00010BD0000140401402DE9F84FDFF8B89154
:1019F000002409F1040A0AF1040B23460F270BF116
:101A0000040EC9E00125A5402A40AA427DD1674EB7
:101A1000D1F804C0ACEB0608B44532D014DCBCF1FC
:101A2000030F3AD009DCBCF1000F2AD0BCF1010F42
:101A30001CD0BCF1020F31D11DE0BCF1110F17D049
:101A4000BCF1120F2AD119E0B8F5881F19D006DCB5
:101A5000B8F5803F15D0B8F5801F1FD111E0B8F55B
:101A6000001F0ED0B8F5041F18D10AE0CB6815E0AE
:101A7000CB681B1D12E0CB6808330FE0CB680C333A
:101A80000CE08B682BB1012B4FF0080303D04561AC
:101A900004E0042302E0056100E00023FF2A01D8EE
:101AA000064601E000F104064FEA840501D9A5F1DC
:101AB0002005D6F8008007FA05FC28EA0C0803FA8E
:101AC00005F548EA0508C6F800804D68ED0062D5C6
:101AD000374DAE6946F00106AE61AD6924F00306EC
:101AE00005F001050095334D06EB050CDCF80850B8
:101AF000A607360F07FA06F825EA0805DFF8B880CA
:101B0000404503D14FF0000817E044E0DFF8AC8017
:101B1000404502D14FF001080FE0DFF8A4804045B6
:101B200002D14FF0020808E0DFF89880404502D16A
:101B30004FF0030801E04FF0040808FA06F848EAFD
:101B40000508CCF808804D68D9F80060ED034D46D3
:101B500001D5164300E096432E604D68DAF8006028
:101B6000AD03554601D5164300E096432E604D68FF
:101B7000DBF80060ED025D4601D5164300E09643B8
:101B80002E604D68DEF80060AD02754601D5164343
:101B900000E096432E60641C0D682A46E5407FF401
:101BA00031AFBDE8F88F00000004014000001110C3
:101BB000001002400000014000080140000C0140FC
:101BC00000100140001401408068084000D001204E
:101BD0007047C26821EA02030A4043EA02410161F8
:101BE00070470AB1016170470904FBE7014880684A
:101BF000704700008400002070B5040025D094F8E0
:101C00003D00002520B984F83C50204600F078FAC9
:101C1000242084F83D002068016821F00101016062
:101C20002068016841F4004101602068016821F4E6
:101C30000041016000F036FC4D4A6168914201D8D4
:101C40004C4900E04C49884201D2012070BD4B490B
:101C50002368B0FBF1F15E6826F03F060E435E603C
:101C60006368934206D94FF4967359434FF47A73DD
:101C7000B1FBF3F12368491C1E6A26F03F0631438D
:101C800019626168914210D84900401EB0FBF1F220
:101C9000521CC2F30B02042A01D2042022E0B0FB42
:101CA000F1F0401CC0F30B001CE0A268F2B301EBA2
:101CB000C10303EB0116431EB3FBF6F35B1C43F4B5
:101CC00080431B0549D092B301EBC10202EB011125
:101CD000401EB0FBF1F0401CC0F30B0040F480400C
:101CE00040F400402168CA694CF6FF739A431043E0
:101CF000C861D4E9071001432068026822F0C002DD
:101D000011430160D4E9030101432068826848F26D
:101D1000FF339A4311438160D4E9050108432168E8
:101D2000CA6822F0FF021043C86001E00EE016E02E
:101D30002068016841F0010101602564202084F8D9
:101D40003D00256384F83E50002070BD01EB410644
:101D5000431EB3FBF6F35B1CB3E70120C2E701EBC4
:101D60004101401EB0FBF1F0401CC0F30B00B7E78F
:101D7000A086010080841E0000093D0040420F0043
:101D80002DE9FF4F83B00025DDE910799A4693468F
:101D90000446DDF848800095FFF728FF064694F8D2
:101DA0003D0020287CD11923012285492046009638
:101DB00001F050FA0028F5D194F83C0001286FD0CA
:101DC000012084F83C0020680168C90703D101683C
:101DD00041F0010101602068016821F400610160A7
:101DE000222084F83D00402084F83E00256467628C
:101DF000A4F82A90608D20857248E062CDE90086C3
:101E000053465A462046049901F02CF900287DD10A
:101E1000208DDFF8B491202768B1012814D0022862
:101E2000206801681ED041F480610160206841692A
:101E300080690090B6E0206841698169009101687D
:101E400041F400710160ADE02068016821F4806117
:101E5000016072B62068416981690091016841F4AE
:101E600000710AE041F40061016072B620684169C6
:101E700081690091016821F48061016062B691E09E
:101E8000032868D801280CD0022843464FF00002EE
:101E90004946204600960FD001F0DCF9B0BB10E0B7
:101EA0008BE032464146204601F053FA70BB206871
:101EB0000069616A08706CE001F0CCF930BB72B661
:101EC00034E02068016821F48061016072B6206806
:101ED0000069616A0870606A401C6062208D401E63
:101EE0002085608D401E6085384846F2A811006844
:101EF000B0FBF1F0C0EBC00000EB80000090401E92
:101F0000009008D020684069C04300E029E0400705
:101F10000CD50098F3E744F8305F6773A573206928
:101F200040F02000206162B625731AE02068016845
:101F300041F40071016020680069616A0870606A9C
:101F4000401C6062218D491E2185618D491E61857D
:101F500062B621681BE032464146204601F0F9F99D
:101F600018B1012007B0BDE8F08F20680069616AF0
:101F70000870606A401C6062218D491E2185618D58
:101F8000491E618521684A69D24352070AD409690A
:101F90000170606A401C6062208D401E2085608D4B
:101FA000401E6085208D00287FF46AAF84F83D7064
:101FB00084F83E5084F83C50D4E70220D2E7000079
:101FC000020010000000FFFF04000100900000204C
:101FD0002DE9FF4F83B09A46DDE9119793460446F9
:101FE000DDF84080FFF702FE054694F83D0020280A
:101FF0007FD11923012240492046009501F02AF99A
:10200000002876D194F83C00012872D0012084F891
:102010003C0020680168C90703D1016841F0010153
:1020200001602068016821F400610160212084F8CA
:102030003D00402084F83E0000262664C4F8248039
:10204000A4F82A90608D20852C48E062CDE90075C7
:1020500053465A462046049901F082F870B930E0A0
:102060002A463946204601F0A7F958B1206C0428C9
:1020700004D12068016841F400710160012007B0BB
:10208000BDE8F08F606A216800780861606A401CD2
:102090006062218D491E89B22185628D521E628542
:1020A00022685369DB435B070BD469B10078106188
:1020B000606A401C6062208D401E2085608D401E3D
:1020C0006085208D0028CBD12A463946204601F074
:1020D0009BF80028CAD154F83D0B016841F4007107
:1020E0000160202004F81E09E67766770020C6E725
:1020F000FFE70220C3E70000020010000000FFFF1E
:1021000010B586B000210091019102910391006801
:102110000F4988421AD10F4CA06940F00800A06115
:10212000A069694600F008000490C02000901220C9
:102130000190032003900848FFF756FCE06940F443
:102140000010E061E06900F40010049006B010BDDA
:102150000054004000100240000C01400248816819
:10216000027811448160704784000020074810B550
:10217000016841F010010160032000F075F80020B3
:1021800000F006F800F024F8002010BD0020024006
:1021900070B50D4D04464FF47A712878B1FBF0F01C
:1021A0000A490968B1FBF0F000F0E1FC48B9102CD5
:1021B00007D200222146501E00F036F800206C6045
:1021C00070BD012070BD0000840000209000002040
:1021D0000C4808B5816941F001018161816901F014
:1021E00001010091C16941F08051C161C06900F0F5
:1021F000805000900448416821F0E06141F0007196
:10220000416008BD0010024000000140002809DBC9
:1022100000F01F02012191404009800000F1E02000
:10222000C0F8001170470000F0B40E4B1B680C465C
:10223000C3F30223C3F10705042D00D90425191D9A
:10224000072901D2002300E0DB1E012606FA05F172
:10225000491E214099409E40761E16403143F0BCF5
:1022600002F0F6BA0CED00E0064900F0070208683B
:102270004FF6FF03184040EA0220034A104308606B
:10228000704700000CED00E00000FA052DE9F8436E
:1022900005460078354CC00754D0E0690026C000E0
:1022A00008D4E06940F08050E061E069012600F068
:1022B000805000902E480168C90512D401688046FC
:1022C00041F480710160FFF791FC074605E000BF13
:1022D000FFF78CFCC01B642823D8D8F80000C00589
:1022E000F6D5206A10F4407021D0A98801F440711D
:1022F00081421CD0206A1F49012220F440700A60EC
:1023000000220A602062C00711D0FFF76FFC074669
:1023100041F2883808E000BFFFF768FCC11B414567
:1023200002D90320BDE8F883206A8007F4D5206A2B
:10233000696820F44070084320621EB1E06920F013
:102340008050E0612878800705D56068A96820F48E
:102350004040084360602878C00605D56068E96899
:1023600020F48000084360600020DBE7001002409A
:1023700000700040400442422DE9F0470F4605003E
:1023800061D0434E306800F00700B84209D230688F
:1023900020F0070038433060306800F00700B84292
:1023A00051D128683B4C810712D5400703D560689E
:1023B00040F4E06060602878000703D5606840F46E
:1023C000605060606068A96820F0F00008436060B9
:1023D0002878C00728D06868012810D02168022812
:1023E00010D0890700292EDA616821F0030101432A
:1023F0006160FFF7FBFB804641F288390DE0216800
:102400008903EFE78901EDE7FFF7F0FBA0EB080197
:10241000494502D90320BDE8F0876068696800F08B
:102420000C00B0EB810FEFD1306800F00700B8422C
:102430000BD9306820F0070038433060306800F076
:102440000700B84201D00120E5E72878400705D50C
:102450006068E96820F4E06008436060287800075D
:1024600006D56068296920F4605040EAC1006060C8
:1024700000F038F86168084AC1F30311515CC840A4
:102480000649086006480068FFF782FE0020C2E7A0
:102490000020024000100240F87300089000002065
:1024A000880000200448054900684968044AC1F3CF
:1024B0000221515CC840704790000020001002408B
:1024C000087400080448054900684968044AC1F3D3
:1024D000C221515CC84070479000002000100240AB
:1024E0000874000812A185B00FC98DE80F0014A070
:1024F000144A006804905168134801F00C03042B3F
:1025000010D0082B0ED1C1F38343C9031DF803007B
:102510000AD5516804AAC1F34041515C0A4A5043AC
:10252000B0FBF1F005B0704708494843FAE70000F6
:1025300002030405060708090A0B0C0D0E0F101004
:10254000010200000010024000127A0000093D0064
:102550002DE9F84F040070D02078C04DC00749D055
:102560006868C0F38100012807D06868C0F3810063
:10257000022809D16868C00306D52868800339D5C8
:1025800060680028E7D035E06068B0F5803F0BD088
:1025900010B1B0F5A02F11D0286820F48030286049
:1025A000286820F4802002E0286840F48030286009
:1025B000606890B1FFF71AFB06460AE0286840F40D
:1025C00080202860F0E700BFFFF710FB801B642825
:1025D00073D828688003F7D50CE0FFF707FB0646A1
:1025E00005E000BFFFF702FB801B6428F0D82868D5
:1025F0008003F7D420789A4E80074FF001094FF0FE
:10260000000839D5686810F00C0F07D06868C0F36F
:102610008100022809D16868C00306D428688007B1
:1026200014D52069012808D110E02069B0B1C6F89E
:102630000090FFF7DBFA074605E00AE1FFF7D6FA5C
:10264000C01B0228C4D828688007F7D528686169AC
:1026500020F0F80040EAC10028600DE0C6F80080D4
:10266000FFF7C4FA074604E0FFF7C0FAC01B0228D0
:1026700023D828688007F7D4207800072CD579481C
:10268000A169D9B1C0F80090FFF7B0FA074604E09D
:10269000FFF7ACFAC01B02280FD8686A8007F7D58D
:1026A00071484FF4FA510068B0FBF1F0009000BFA0
:1026B0000098411E0091FAD20EE080E0C0F8008040
:1026C000FFF794FA074604E0FFF790FAC01B0228D0
:1026D00075D8686A8007F7D42078400760D5E86924
:1026E0000027C00008D4E86940F08050E861E8693C
:1026F000012700F0805000905C480168C90513D4A0
:102700000168834641F480710160FFF76FFA8246E9
:1027100006E000BFFFF76AFAA0EB0A0064284ED873
:10272000DBF80000C005F5D5E06801280AD008B143
:10273000052813D0286A20F001002862286A20F0BA
:10274000040002E0286A40F001002862E06841F2DB
:10275000883B98B1FFF74AFA82460BE0286A40F0BE
:1027600004002862EEE700BFFFF740FAA0EB0A0181
:1027700059455AD8286A8007F6D50CE0FFF736FA93
:10278000824605E0FFF732FAA0EB0A0159454CD822
:10279000286A8007F6D41FB1E86920F08050E8610C
:1027A000E06988B36968C1F38101022944D0022835
:1027B000C6F8608004D0FFF719FA044638E034E028
:1027C000FFF714FA074604E0FFF710FAC01B0228CF
:1027D0002BD828688001F7D4206AB0F5803F05D156
:1027E0006868A16820F4003008436860D4E90801F3
:1027F0000843696821F4741108436860C6F8609062
:10280000FFF7F4F9044606E025E000BFFFF7EEF914
:10281000001B022809D828688001F7D51BE000BFFB
:10282000FFF7E4F9001B022802D90320BDE8F88F66
:1028300028688001F4D40EE00128F7D06868226A85
:1028400000F48031914204D1616A00F47010884232
:1028500001D00120EAE70020E8E700000010024074
:10286000000042428004424290000020007000407C
:1028700070B5040009D0606A002540B1256165612A
:10288000A56294F8510040B10CE0012070BD606871
:10289000B0F5827FF4D0E561F2E784F8505020462D
:1028A00000F040F8022084F851002068016821F00F
:1028B00040010160A088218900F4827001F4044184
:1028C0000843A18901F400610843217C01F0020161
:1028D0000843217D01F001010843218B01F40071BF
:1028E0000843217F01F03801084394F8201001F0DB
:1028F00080010843218D01F40051084321680860DC
:10290000A069042101EA1040216848602068C1697B
:1029100021F40061C1616565012084F85100002047
:1029200070BD000070B586B0002500950195029538
:10293000039506462D4C03682D4902200322A3422D
:1029400037D18B6943F480538B618B6903F48053D7
:1029500004938B6943F004038B618969254C01F072
:1029600004010491B021CDE900100392694620468C
:10297000FFF73AF84020CDE9000569462046029568
:10298000FFF732F81D4C1C4820601020C4E90105F7
:102990008020C4E9030540016561C4E90650204672
:1029A000FEF7A6FF08B1FEF74BF8B464666206B006
:1029B00070BD134CA342FAD1CB6943F48043CB6181
:1029C000CB6903F4804304938B6943F008038B6164
:1029D0008969039201F0080104914FF42041CDE987
:1029E000001069460748FEF7FFFFE0E700300140AE
:1029F0000010024000080140300002408802002020
:102A000000380040000C01402DE9F84F044690F8D2
:102A1000500000271D461646894601280DD04FF06C
:102A2000010B84F850B0FFF7E1F8804694F85100AC
:102A3000BA46012804D0022793E00220BDE8F88FAF
:102A4000B9F1000F73D0002E71D0032084F851002B
:102A5000C4F854A0C4F83090A686E686C4F838A01E
:102A6000A4F83CA0A4F83EA0C4F844A0C4F840A038
:102A7000A068B0F5004F09D12068016821F040013D
:102A800001602068016841F48041016020680168AC
:102A9000490603D4016841F040010160E068B0F5E7
:102AA000006F606803D030B3012E24D041E008B13C
:102AB000012E1CD1206B21680088C86006E02068C8
:102AC0008168890709D5216B0988C160206B801C4A
:102AD0002063E08E401EE08609E0FFF787F8A0EB58
:102AE0000800A84202D3681C01D031E07DB3E08E1B
:102AF0000028E4D120E0206B21680078087306E00C
:102B000020688168890709D5216B09780173206BDA
:102B1000401C2063E08E401EE0860AE0FFF766F866
:102B2000A0EB0800A84203D3681C02D010E017E015
:102B30006DB1E08E0028E3D142462946204601F0DF
:102B4000B6FC08B120206065A06818B106E0FFE778
:102B5000032706E02068C16880680090606D00B1BE
:102B6000012784F851B084F850A0384666E710B5C4
:102B7000401EB0F1807F01D3012010BD4FF0E02452
:102B800060610F21601701F063FE0020A061072043
:102B90002061002010BD70477047000070B590F8AC
:102BA0003C20012A26D0012480F83C40022280F8F3
:102BB0003D2003685A689D6822F070060A68324317
:102BC0005A600D4B02689A4208D0B2F1804F05D08E
:102BD0000A4B9A4202D00A4B9A4204D1496825F026
:102BE00080031943916080F83D40002180F83C103B
:102BF000084670BD022070BD002C0140000400405A
:102C00000008004010B5040003D094F83D0010B156
:102C100007E0012010BD002084F83C00204600F0B1
:102C20001FF8022084F83D00211D206801F0E8FC17
:102C3000012084F8460084F83E0084F83F0084F8C0
:102C4000400084F8410084F8420084F8430084F88E
:102C5000440084F8450084F83D00002010BD0000C9
:102C600008B500680B49884212D10B48C16941F090
:102C70000401C161C069002200F004000090114607
:102C80001E20FFF7D1FABDE808401E20FFF7BEBAAC
:102C900008BD0000000800400010024090F83D1000
:102CA000012901D001207047022180F83D10016800
:102CB000CA6842F00102CA6000680B49884208D025
:102CC000B0F1804F05D00949884202D008498842B6
:102CD00004D1816801F00701062903D0016841F0A1
:102CE0000101016000207047002C014000040040F9
:102CF0000008004070B5044690F83C00012817D049
:102D0000012584F83C50022084F83D002068826848
:102D100022F0770222F47F4282600868502830D087
:102D20000DDC20284DD005DC98B310283BD148E0BD
:102D3000022070BD302844D0402834D139E06028CA
:102D400028D0702806D0B0F5805F2CD0B0F5005F99
:102D500029D10AE0CB68D1E90121206801F086FC85
:102D60002068816841F0770109E0CB68D1E9012151
:102D7000206801F07BFC2068816841F4804181601B
:102D800011E0CA684968206801F082FC502120687F
:102D900007E016E0CA684968206801F08AFC6021F3
:102DA000206801F06DFC84F83D50002084F83C0060
:102DB00070BDCA684968206801F06AFC402120683B
:102DC000EFE7226801461046EBE7704770B504460E
:102DD000006801694FF00005C943890715D4C1682F
:102DE000C943890711D4E91E0161012020772068B9
:102DF00080698007204602D0FFF7E7FF04E000F07B
:102E000098F8204600F096F8257720680169C943B4
:102E1000490717D4C168C943490713D46FF00401A7
:102E20000161022020772068806910F4407F2046ED
:102E300002D0FFF7CAFF04E000F07BF8204600F064
:102E400079F8257720680169C943090716D4C16854
:102E5000C943090712D46FF00801016104202077EB
:102E60002068C0698007204602D0FFF7AEFF04E06B
:102E700000F05FF8204600F05DF8257720680169D2
:102E8000C943C90617D4C168C943C90613D46FF032
:102E900010010161082020772068C06910F4407F8C
:102EA000204602D0FFF791FF04E000F042F82046F0
:102EB00000F040F8257720680169C943C90708D1A7
:102EC000C168C943C90704D1891E0161204600F0C9
:102ED00033F820680169C943090609D4C168C943A8
:102EE000090605D46FF0800101612046FFF753FE0B
:102EF00020680169C943490609D4C168C943490624
:102F000005D46FF040010161204600F029F82068E7
:102F10000169C94389060BD4C168C943890607D42E
:102F20006FF0200101612046BDE87040FFF734BE1C
:102F300070BD7047704700000068074988420AD199
:102F400006480188491C018001884FF6FF729142B2
:102F500001D30021018070470008004004000020D8
:102F6000704770B5040004D094F83900002510B102
:102F700006E0012070BD84F83850204600F022F8A9
:102F8000242084F839002068C16821F40051C16010
:102F9000204601F0EBFB2068016921F490410161BA
:102FA0002068416921F02A0141612068C16841F42B
:102FB0000051C160E563202084F8390084F83A00AC
:102FC000002070BD30B585B00024009401940294B7
:102FD000039400681449884224D11448816941F45B
:102FE00080418161816901F480410491816941F0EE
:102FF0000401816180690E4D00F0040004904FF4DB
:10300000007000900220019003200390694628463A
:10301000FEF7EAFC2815CDE900046946284602942B
:10302000FEF7E2FC05B030BD003801400010024060
:1030300000080140FEE701684A69D24352050FD4F7
:103040006FF480624A61002140F8301F20224273F1
:103050008173026942F0040202610173012070472A
:10306000002070472DE9F84F0446006889460B9D03
:1030700001689846174641F4806101602068016844
:1030800041F48071016000954FF0011B0022594608
:1030900020460A9B00F0DEF84FF4007A40B1206829
:1030A0000068C00501D5C4F840A00320BDE8F88F32
:1030B000216809F0FE0008612B46284920460A9A3B
:1030C00000F0FCF8F0BB20684169806900902A4656
:1030D00020460A9900F070F940B1206C04283AD1DA
:1030E0002068016841F40071016034E0FEB2B8F17B
:1030F000010F09D02168380A08612A4620460A993A
:1031000000F05AF90028E8D1206806612A462046D6
:103110000A9900F051F90028DFD12068016841F4D4
:103120008071016000950022594620460A9B00F0FC
:1031300091F80028B3D1216809F0FF0040F00100A8
:10314000086100E007E02B46044920460A9A00F097
:10315000B5F80028AAD00120A8E70000020001006D
:103160002DE9F843044600680D46DDE9089701683B
:103170009846164641F4807101604B4600224FF09C
:1031800001112046009700F065F848B120680068FA
:10319000C00502D54FF4007020640320BDE8F88319
:1031A000216805F0FE0008613B464A461549204665
:1031B00000F084F888B920684169806900903A4637
:1031C0004946204600F0F8F848B1206C042804D1A4
:1031D0002068016841F4007101600120DEE7F5B26A
:1031E000B8F1010F09D02168300A08613A46494612
:1031F000204600F0E1F80028E7D1206805610020B2
:10320000CCE700000200010070B516460D460446EA
:103210000DE02046FFF70FFF08B1012070BD681CCC
:1032200005D0FEF7E3FC801BA84207D835B1206823
:103230004069C0434007ECD4002070BD002044F832
:10324000300F20216173A073216941F020012161B9
:103250002073E2E72DE9F0471E4690460D460446EE
:10326000C1F30747DDF8209008E0701C06D0FEF798
:10327000BDFCA0EB0900B0420FD876B12068012F49
:1032800018D0806925EA00000004000C14D0002149
:103290004145EAD00020BDE8F087002044F8300F17
:1032A00020216173A073216941F020012161207305
:1032B0000120F0E74069E5E70121E9E72DE9F04762
:1032C0009A4691460E46044600254FF02008C1F369
:1032D000074725E020684069C043400514D42068B2
:1032E000016841F40071016021686FF480604861F9
:1032F000256384F83D8084F83E50206C40F0040043
:10330000206484F83C501FE0B9F1FF3F08D0FEF77D
:103310006DFCA0EB0A0149450CD8B9F1000F09D0AA
:103320002068012F13D0806926EA00000004000CF9
:103330000BD0CFE744F8305F84F80D80A573206987
:1033400040F02000206125730120BDE8F08740692E
:10335000EAE72DE9F041002590460E460446202775
:1033600017E04069C043C0060CD454F8301B6FF01E
:103370001000486144F810596777A577206A2062E9
:10338000257717E0FEF732FCA0EB0800B04208D822
:103390003EB120684169C9434906E2D40020BDE836
:1033A000F08144F8305F6773A573206940F0200016
:1033B000206125730120F2E770B516460D460446DC
:1033C0000DE02046FFF737FE08B1012070BD681CF4
:1033D00005D0FEF70BFC801BA84207D835B120684A
:1033E0004069C0430006ECD4002070BD002044F8C2
:1033F000300F20216173A073216941F02001216108
:103400002073E2E72DE9F04F8FB09146DDE91862B5
:103410009B468A46202801D3203880B200EB8003E7
:1034200003EBC000254B002103EB80000DF10404E9
:1034300030F8113024F81130491C89B21A29F7D319
:1034400006EB860000EBC6014FF6FF7000EA410371
:10345000009200EA06124946504600F055F9002550
:10346000A0464FF40047002438F8150027FA04F16D
:1034700008420DD0012E16D005FB069081B204FB48
:1034800006A0334680B21A46CDF800B000F03CF9F1
:10349000641CA4B2102CE7D36D1CADB21A2DE2D37C
:1034A0000FB0BDE8F08F09EB050081B20AEB040014
:1034B00080B25A4600F07AF8EAE70000AC600008F3
:1034C0002DE9F0470E464FF4FA740746B4EB460F69
:1034D00000D90C46012291021F48FEF782FBDFF85B
:1034E0007C90002210214846FEF77BFB4FEA17280C
:1034F000204601F0F7FE05460020F9B205E000BFC6
:1035000005F800802A18801C5170A042F8D3700082
:10351000B0FBF4F1B0FBF4F704FB110857B100263F
:1035200006E0A2B20A2329460D48FFF76DFA761C81
:10353000BE42F6D31FFA88F20A2329460848FFF74D
:1035400063FA012210214846FEF74BFB2846BDE8EE
:10355000F04701F0FBBD0000000C014000080140F5
:103560005001002070B505460F4814461E4642889B
:10357000954217D20288914214D243882A19521ECA
:103580009A4202DB4088401B84B22819401E82B256
:103590000B46284600F07EFA21463046BDE87040D2
:1035A000FFF78EBF70BD00001A0000202DE9FE431A
:1035B000054651480C46164641888D427DD200880A
:1035C00084427AD2DFF834814FF480670022394692
:1035D0004046FEF706FBDFF82891002210214846FE
:1035E000FEF7FFFA2A2000F04BFA01223946404646
:1035F000FEF7F7FA012210214846FEF7F2FA002200
:1036000010214846FEF7EDFA280A8DF800008DF8E3
:1036100001506D1C280A8DF802008DF8035001231B
:10362000042269463748FFF7EFF901221021484686
:10363000FEF7D7FA002239464046FEF7D2FA0022BA
:1036400010214846FEF7CDFA2B2000F019FA01228E
:1036500039464046FEF7C5FA012210214846FEF7DA
:10366000C0FA002210214846FEF7BBFA200A8DF866
:1036700004008DF80540641C200A8DF806008DF8C2
:1036800007400123042201A91E48FFF7BDF90122CA
:1036900010214846FEF7A5FA002239464046FEF7BB
:1036A000A0FA002210214846FEF79BFA2C2000F0D9
:1036B000E7F901223946404600E01BE0FEF791FAA7
:1036C000012210214846FEF78CFA002210214846BC
:1036D000FEF787FA300A8DF808008DF8096001239B
:1036E000022202A90748FFF78FF90122102148465C
:1036F000FEF777FABDE8FE831A000020000C0140B7
:1037000000080140500100202DE9F041154C1646FB
:10371000069F62881D46904221D2228891421ED285
:1037200063888219521E9A4202DB6288121A96B28C
:1037300023884A19521E9A4202DB2288521A95B2F5
:103740004A19521E93B28219521E92B200F0A2F987
:1037500005FB06F13846BDE8F041FFF7B1BEBDE814
:10376000F08100001A0000202DE9FC479846DDE9B1
:103770000A6791460D4604460AE043464A462946F2
:10378000CDE90067641CFFF73DFE05EB061085B22E
:1037900020780028F1D1BDE8FC87000070B5144600
:1037A00002460E481D4643889A4216D20388994223
:1037B00013D206880B195B1EB34202DB0088401A45
:1037C00084B20819401E83B2104600F063F9214606
:1037D0002846BDE87040FFF773BE70BD1A00002098
:1037E0000122D1020148FEF7FCB90000000C0140A3
:1037F00070B5084C0546238862880021084600F011
:1038000049F96188208841432846BDE87040FFF7A8
:1038100057BE00001A00002010B5FFF7E1FF00F0CE
:1038200027F900F005F9012000F086F94FF47A70CD
:10383000FEF78CF8CB2000F07FF9392000F098F9E2
:103840002C2000F095F9002000F092F9342000F0CF
:103850008FF9022000F08CF9CF2000F06DF90020E4
:1038600000F086F9C12000F083F9302000F080F9E3
:10387000E82000F061F9852000F07AF9002000F0DE
:1038800077F9782000F074F9EA2000F055F900206B
:1038900000F06EF9002000F06BF9ED2000F04CF91B
:1038A000642000F065F9032000F062F9122000F0B6
:1038B0005FF9812000F05CF9F72000F03DF920204D
:1038C00000F056F9C02000F037F9232000F050F93D
:1038D000C12000F031F9102000F04AF9C52000F0B5
:1038E0002BF93E2000F044F9282000F041F9C720D0
:1038F00000F022F9862000F03BF9362000F01CF998
:10390000482000F035F93A2000F016F9552000F073
:103910002FF9B12000F010F9002000F029F918204B
:1039200000F026F9B62000F007F9082000F020F991
:10393000822000F01DF9272000F01AF9F22000F093
:10394000FBF8002000F014F9262000F0F5F8012023
:1039500000F00EF9E02000F0EFF80F2000F008F979
:10396000312000F005F92B2000F002F90C2000F0C6
:10397000FFF80E2000F0FCF8082000F0F9F84E20C7
:1039800000F0F6F8F12000F0F3F8372000F0F0F83E
:10399000072000F0EDF8102000F0EAF8032000F016
:1039A000E7F80E2000F0E4F8092000F0E1F800202C
:1039B00000F0DEF8E12000F0BFF8002000F0D8F8B9
:1039C0000E2000F0D5F8142000F0D2F8032000F00B
:1039D000CFF8112000F0CCF8072000F0C9F8312012
:1039E00000F0C6F8C12000F0C3F8482000F0C0F88D
:1039F000082000F0BDF80F2000F0BAF80C2000F00D
:103A0000B7F8312000F0B4F8362000F0B1F80F20FC
:103A100000F0AEF8112000F08FF87820FDF796FF47
:103A2000292000F089F8BDE81040002000F05CB8C3
:103A300070B50D4D4FF40064002221462846FEF774
:103A4000D0F8C820FDF782FF002210210748FEF7BA
:103A5000C8F8C820FDF77AFF21462846BDE8704027
:103A60000122FEF7BEB80000000C01400008014032
:103A7000002210210148FEF7B4B800000008014000
:103A800001B501231A4669460148FEF7BDFF08BD8E
:103A9000500100202DE9F04107461C4615460E4610
:103AA0002A2000F049F8380A00F062F8F8B200F075
:103AB0005FF8280A00F05CF8E8B200F059F82B2013
:103AC00000F03AF8300A00F053F8F0B200F050F885
:103AD000200A00F04DF8E0B200F04AF8BDE8F041ED
:103AE0002C2000F029B800002DE9F04107463620CF
:103AF00000F022F80120FDF729FF0E4CF0254FF4CD
:103B0000A0766FB1012F0DD0022F0DD0032F05D15C
:103B10005FF0E80000F02CF866802580BDE8F081B9
:103B2000482002E02820F5E7882000F021F8658091
:103B30002680F3E71A00002070B50B4C05460022E2
:103B400010212046FEF74DF8002221150748FEF708
:103B500048F82846FFF794FF2046BDE87040012250
:103B60001021FEF73EB8000000080140000C0140A3
:103B700070B50546012291020948FEF732F8094C5A
:103B8000002210212046FEF72CF82846FFF778FF88
:103B90002046BDE8704001221021FEF722B8000047
:103BA000000C014000080140F0B40024DDE9045697
:103BB000017042708370C57016B14FF400429FE0EF
:103BC0004FF4007046004FF4C067082916D2DFE8B2
:103BD00001F0150406080A0D101304460EE03446E1
:103BE0000CE03C460AE04FF4006407E04FF4206428
:103BF00004E04FF4406401E04FF46064082A2FD2DF
:103C0000DFE802F004070F122E17262924F04000E7
:103C100001E044F0400020F0800000BF20F48070FC
:103C20000EE024F0400001E044F0400040F080004D
:103C3000F4E744F0400000BF20F0800040F48070C2
:103C4000082B39D2DFE803F00F12191C382130336A
:103C500024F0400001E044F0400040F08000EDE737
:103C600024F04000E8E720F0080001E040F0080000
:103C700020F0100020F020000EE020F0080001E00D
:103C800040F0080040F01000F4E740F0080000BFEA
:103C900020F0100040F02000072D36D2DFE805F0BC
:103CA0000F12171A2124290020F0080001E040F02B
:103CB000080040F01000EDE720F00800E8E720F0F1
:103CC000010001E040F0010020F0020006E020F0D9
:103CD000010001E040F0010040F0020020F0040289
:103CE0000EE020F0010001E040F0010020F00200B1
:103CF00004E020F0010000BF40F0020040F00402A8
:103D0000F0BC0021802000F091B840F00100F3E702
:103D100008B50020ADF800006A460121802000F0BF
:103D20004BF8BDF80000010401D5002008BDFCF7E8
:103D30008CFC0022054BFCF799FB0022044BFCF79E
:103D400007FCBDE80840FCF7B4BC00000000F43FED
:103D500000408F4030B41400029D017144718371A2
:103D60004FF00002C57101D14FF48062062912D2D2
:103D7000DFE801F0110306090C0F42F400420AE0EB
:103D800042F4804207E042F4005204E042F48052E0
:103D900001E042F40062012B01D142F00202012D48
:103DA00001D142F0010203480621028030BC80208C
:103DB00000F03CB8000000207FB514460022ADF8AA
:103DC0000C204FF4FA65022303AA8DE82C000A4662
:103DD000014601230548FDF7D3FFBDF80C00010A99
:103DE00041EA0020ADF80C0020807FBDFC000020DF
:103DF00008B50020ADF800006A4602218020FFF7D8
:103E0000DBFFBDF80000FCF720FC0022054BFCF7AF
:103E10002DFB0022044BFCF79BFBBDE80840FCF7A0
:103E200048BC00000000F43F00408F4017B583B04D
:103E30004FF4FA64BDF81420130A43EA0222ADF8E5
:103E40001420022305AA8DE81C000A46014601231E
:103E50000248FEF7BDF806B010BD0000FC000020CF
:103E600030B5150A039C04FB010003F8105003EB66
:103E70004000427030BD00002DE9FF4F83B01C466A
:103E8000129993464FF000094FF6FF7061B104EBB1
:103E900084011A2701EBC401102500EA8110029069
:103EA00001F020FA01906BE004EB4411122701EBC2
:103EB00041010B2500EA8100F1E7824612980BF1DF
:103EC000010B40B3002054E000261FE03F490AEBFD
:103ED000CA0001EB800101EB4800A0F58050019B76
:103EE000B0F8801B4FF40040F040014204FB05F0A5
:103EF000C0B2009006EB090080B201D0109A00E039
:103F0000119A4146FFF7ACFF761CF6B2AE42DDD304
:103F100008F10100C0B28046B842D5D32CE000269B
:103F200022E000BF0AEB8A0101EBCA002849019B8D
:103F300001EB800101EB4800A0F58050B0F880193A
:103F40004FF40040F040014204FB05F0C0B2009085
:103F500006EB090080B201D0109A00E0119A4146A8
:103F6000FFF77EFF761CF6B2AE42DBD308F101000C
:103F7000C0B28046B842D2D309EB05001FFA80F9DF
:103F80009BF80000002898D10498193083B2039858
:103F9000401E04FB050082B2DDE90301FFF77AFD54
:103FA000012291020B48FDF71CFE002210210A4855
:103FB000FDF717FEDDE9011264230848FEF724FD32
:103FC000019807B0BDE8F04F01F0C0B850530008A9
:103FD000AC600008000C01400008014050010020C6
:103FE0002DE9F843074600201546DFF87C900E4681
:103FF000ADF8000002464FF480581C464146484642
:10400000FDF7EFFDBDF80000012F23D020F40040A4
:10401000ADF8000080B206B320F40050ADF8000007
:1040200080B2EDB120F48050ADF80000BDF8001072
:10403000C4F30B000843ADF8000064230222694674
:104040000A48FEF7E1FC012241464846FDF7C9FD5A
:10405000BDE8F88340F40040DAE740F40050DDE7C3
:1040600040F48050E0E70000000C0140A80100206F
:104070003EB500240D480094019402940A498460DE
:10408000016001250573047505614FF460214460EA
:10409000C161FDF7BFFA07200094CDE901506946E0
:1040A0000248FDF7C5F93EBD00240140CC000020C8
:1040B0002DE9F04F85B00024464800940194029405
:1040C0000394816941F010018161816901F010015F
:1040D0000491816941F004018161816901F0040169
:1040E0000491816941F0080181618069DFF8E8A0ED
:1040F00000F008004FF44045049000222946504645
:10410000FDF76FFD40F60147002239463348FDF7C1
:1041100068FD4FF48058012241463048FDF761FDAB
:10412000DFF8BCB04FF40049002249465846FDF77D
:1041300058FD0095022601250396CDE901546946F4
:104140005046FDF751FC0620CDE90004694658466B
:104150000294FDF749FC00970396CDE901546946A6
:104160001E48FDF741FC0320CDE90240CDE9008562
:1041700069461A48FDF738FC44F20810CDE90004FE
:10418000694616480294FDF72FFCCDF8009003967F
:10419000CDE9015469465846FDF726FC30200090D1
:1041A0001048CDE9010469460C48FDF71DFC0022CA
:1041B00011460A20FEF738F80A20FEF727F80022F9
:1041C00011461720FEF730F81720FEF71FF805B04C
:1041D000BDE8F08F0010024000100140000C0140CB
:1041E00000080140000021100C480B494FF48022C8
:1041F00001604FF48271416000218160C160016102
:10420000C0E905120822C0E90721416281620A2142
:10421000C162FEF72DBB00000030014050010020BC
:104220000C480B494FF4006201604FF48271416009
:104230000021C0E9021292100161C0E905121022AA
:10424000C0E90721416281620A21C162FEF710BB09
:1042500000380040A801002010B586B000241248A4
:10426000009401940294039404940E49059401600F
:104270001F21C0E901144FF6FF71C0E903148461E6
:10428000FEF7C0FC4FF48050009069460648FEF7E8
:1042900031FD049404A904480594FEF77FFC06B0A0
:1042A00010BD00000008004000020020FEE70000F2
:1042B0002DE9FC410746007820B103220121384650
:1042C000FCF7A2FB3878002501244FF6E0760128A0
:1042D0001FD0022837D0032819D1032233461146B4
:1042E00026A0CDE90045FFF73FFA334603226C21B3
:1042F00022A0CDE90045FFF737FACDE900460023BB
:104300000322D9211DA0FFF72FFA21203870BDE824
:10431000FC81CDE9004603220023114617A0FFF7D8
:1043200023FA334603226C2114A0CDE90045FFF7A0
:104330001BFA33460322D92110A0CDE90045FFF72F
:1043400013FA0B20E2E70322334611460BA0CDE916
:104350000045FFF709FACDE90046002303226C214E
:1043600006A0FFF701FA33460322D92103A0CDE9C5
:104370000045FFF7F9F91620C8E700004F46460050
:10438000704700002DE9FC5F0746DDE90C581C462C
:104390000E461046FCF754F900902046FCF750F901
:1043A0008246414C3146384615B1FBF736FF01E0F5
:1043B000FBF736FF206001210F98FBF7A4FF83462F
:1043C0005E4610990E98FBF72EFF1099FBF72BFF16
:1043D000074601211098FBF796FF05464146FBF77B
:1043E00022FF81463946FBF7C6FE3146FBF7C3FE86
:1043F0008046E0604E4602210F98FBF784FF10993B
:1044000007460846FBF70FFF0E99FBF70CFF3946EE
:10441000FBF703FF3146FBF700FFC4E9040B074637
:10442000A9465E464846E169FBF7FDFE0546304673
:10443000A168FBF7F8FE8346616838460191FBF7F7
:10444000F2FE216806460F464046FBF7ECFE314679
:10445000FBF791FE5946FBF78EFE2946FBF78BFED4
:104460004946FBF712FFA0610146E0610198C4E9EB
:1044700001700098FCF73AF901D20098A06150460B
:10448000A169FCF73DF901D2C4F818A0119810B148
:104490000020A061E061A069FCF7E4F800F29E70E2
:1044A00080B2BDE8FC9F000020000020704738B5B6
:1044B0000B46009204460022802100F009F80028F3
:1044C00004D0606D40F020006065032038BD00001E
:1044D0002DE9F8431E46914688460446089DFDF79F
:1044E00085FB401B351AFDF781FB07462548006810
:1044F000C0F3CB30684338E0701C37D0FDF776FB53
:10450000C01BA84203D215B1009860B32CE020680C
:10451000416821F0E00141606068B0F5827F0BD115
:10452000A068B0F5004F02D0B0F5806F04D12068CC
:10453000016821F040010160A06AB0F5005F09D177
:104540002068016821F4005101602068016841F48D
:1045500000510160012084F85100002084F85000CF
:104560000320BDE8F8830025401E00902068816884
:1045700038EA010004D000214945BDD10020F0E710
:104580000121F9E7900000207047FDF7E7BD30B545
:1045900093B028216846FBF7DCFD14210AA8FBF73D
:1045A000D8FD0024022501200F94049000951020CE
:1045B000059012944FF46010CDE9084011941094C6
:1045C00007956846FDF7C4FF0F20CDE90A0568028C
:1045D000CDE90C4002210AA80E94FDF7CDFE4FF460
:1045E000404011900F950FA8FDF750FE13B030BD5D
:1045F000704700000148FEF7E9BB00000002002000
:10460000F0B50268164B174C174D4FF08047984293
:1046100005D0B84203D0A04201D0A84203D122F075
:1046200070064A683243984205D0B84203D0A0428F
:1046300001D0A84203D122F44074CA6822434C69D5
:1046400022F08002224302608A68C2620A688262A3
:10465000984201D10969016301214161F0BD000067
:10466000002C0140000400400008004010B58468A0
:1046700042EA032224F47F440A432243826010BDAD
:10468000826822F070020A4342F00701816070479D
:1046900010B5036A046A24F001040462846924F0FA
:1046A000F00444EA021423F00A020A43846102621D
:1046B00010BD10B5036A23F0100303628369046A16
:1046C00023F4704343EA023224F0A00343EA0111C9
:1046D0008261016210BD000010B5054B054C1988C0
:1046E00020681A8880B240EA01408A42F7D110BDA2
:1046F0000400002024080040074800210180074AE8
:104700004FF47A71C260B2FBF1F2B2FBF1F1C0E991
:1047100001120348FEF7C2BA0400002040420F0015
:104720000002002070B50446007816460D4658B1C8
:1047300000202070FFF7D0FF60600B4876B1012E9B
:104740000ED0C0686843A060FFF7C6FF6168401ADA
:10475000A168884206D30120207070BD4068F1E74F
:104760008068EFE7002070BD0400002070B50446AB
:1047700000680169E26821F4405111430161216937
:10478000A0680843616908432168CA6841F20C6364
:104790009A430243CA6020684169A26921F44071CA
:1047A000114341611E492068884202D1FDF78AFE0B
:1047B00001E0FDF777FE00EBC00101EB001260683D
:1047C00064218000B2FBF0F3B3FBF1F36FF0180645
:1047D0007343B2FBF0F5B2FBF0F605EB8305322331
:1047E00003EB0515B5FBF1F5B6FBF1F605F0F005A9
:1047F00005EB0615B2FBF0F6B2FBF0F0B0FBF1F002
:104800006FF01802504306EB800003EB0010B0FB82
:10481000F1F0216800F00F002844886070BD0000AE
:1048200000380140FEE700000FB4084B10B504A9A2
:1048300002AA039800F0EEF8044602A9002000F056
:1048400080FC204610BC5DF814FB000043510008BA
:104850000907090E002804DB00F1E02080F80014AD
:10486000704700F00F0000F1E02080F8141D704741
:1048700002E008C8121F08C1002AFAD17047704729
:10488000002001E001C1121F002AFBD17047000087
:104890002DE9FF5F82B00021DDE90430020DDDF873
:1048A00040B0034318D044F61050A2F2FF32424306
:1048B0001514119801281FD0A5EB0B00401C5FEACE
:1048C000000A4FF000064E4FDFF83891B0465046D0
:1048D00015D5CAF1000413E0119801244AA3012858
:1048E00001D16FEA0B010298119AC0E90031C0E9C9
:1048F000024206B0BDE8F09FCBF10000DFE70446BE
:104900000021404A491842EB0450CDE9001012E062
:10491000E00707D032463B4640464946FBF7A6FD36
:104920008046894632463B4610461946FBF79EFDB7
:1049300006460F466410002CEAD1DDE90401DDE9EA
:104940000023BAF1000F06DAFBF790FD42464B4612
:10495000FBF78CFD05E0FBF7FBFD42464B46FBF702
:10496000F7FD04460E460022284BFBF7E7FF03D86D
:104970004FF0FF30014607E00022254B204631462C
:10498000FBF7CDFCFBF7C2FF102409E0002C0ADB8B
:104990000A220023FBF7D4FE039B30321A55641E13
:1049A00050EA0102F2D1641C039AC4F111031444C9
:1049B000119A012A03D0012208430DD10AE00843CD
:1049C00004D000204FF0110B119072E7A3EB0B0500
:1049D0006D1E0DE05B4504DD4FF0000205F10105A1
:1049E00004E003DA4FF00002A5F10105002AECD043
:1049F00002981199C0E90231C0E9004579E7000049
:104A0000000014400000F03F300000000000F043C0
:104A10000000E03F2DE9FF4F95B09B4689460646D2
:104A200000250FE2252877D100242746F84A0121E6
:104A3000059400E0044316F8013F203B01FA03F01F
:104A40001042F7D130782A2811D06FF02F03307838
:104A5000A0F13002092A16D8059A44F0020402EBAC
:104A6000820203EB42021044761C0590EFE759F8EE
:104A7000042B0592002A03DA504244F400540590B6
:104A800044F00204761C30782E2816D116F8010F57
:104A900044F004042A280DD06FF02F023078A0F1E2
:104AA0003003092B09D807EB870302EB4303C71830
:104AB000761CF3E759F8047B761C30786C280FD00D
:104AC00006DC4C2817D068280DD06A2814D104E0E1
:104AD000742810D07A280FD10DE044F400140AE0B5
:104AE00044F4801401E044F440147278824202D10C
:104AF00004F58014761C761C307866280BD013DC05
:104B0000582877D009DC002875D04528F6D04628EB
:104B1000F4D047281AD19DE118E0632835D06428E5
:104B200079D0652812D195E1702873D008DC672808
:104B3000F1D069286FD06E280DD06F2806D1B5E06E
:104B400073282CD0752875D0782874D05A461799B8
:104B500090476D1C75E1C4F30250022809D0032868
:104B60000DD0D9F8001004280DD00D6009F104090A
:104B700067E1D9F80010EA17C1E90052F6E7D9F861
:104B800000100D80F2E70D70F0E719F8041B8DF8A6
:104B9000001000208DF80100EA46012003E059F8DA
:104BA00004AB4FF0FF3061074FF0000102D40DE07D
:104BB00008F101018846B9420FDA8045F8DB1AF89E
:104BC00008100029F4D108E008F10101884681426B
:104BD000FADB1AF808100029F6D105985B46A0EB1D
:104BE000080721463846179A00F094FA284400EB4B
:104BF000080507E04DE029E10DE01AF8010B5A46DF
:104C000017999047B8F10108F7D25B46214638461C
:104C1000179A13E142E00A220092C4F302524FF0C5
:104C2000000A022A08D059F804CB032A4FEAEC7193
:104C30000AD00DE029E02AE009F1070121F007027E
:104C4000F2E802C1914609E00FFA8CFC4FEAEC71E0
:104C5000042A03D14FFA8CFC4FEAEC71002907DAE1
:104C60000A460021DCF1000C61EB02012D2202E07A
:104C7000220504D52B228DF80420012203E0E2074F
:104C800001D02022F7E7904659E00A2102E01022E5
:104C90000DE010214FF0000A00910BE010224FF0C0
:104CA000000A44F004040827009203E008224FF0B1
:104CB000000A0092C4F30252022A05D059F804CB2C
:104CC0000021032A08D009E009F1070121F00702B9
:104CD000F2E802C1914605E01FFA8CFC042A01D1DA
:104CE0000CF0FF0C4FF00008220728D5702806D0E2
:104CF000009B83F0100353EA0A0305D00EE0402224
:104D00008DF80420012208E05CEA010206D030227E
:104D10008DF804208DF8050002229046009B83F058
:104D2000080353EA0A030AD15CEA010201D16207CF
:104D300005D530228DF804204FF001087F1E582839
:104D400004D034A003900EA802900DE036A0F9E73D
:104D500053466046009AFBF7F3FC84460398825C56
:104D60000298401E029002705CEA0100F0D10298A5
:104D700006A9081A00F1200A600702D524F480343D
:104D800000E00127574502DDA7EB0A0000E0002004
:104D900000EB0A01009005984144401A0590E00399
:104DA00006D45B462146179A059800F0B3F90544EE
:104DB000002706E001A85A46C05D179990476D1C70
:104DC0007F1C4745F6DBE0030CD55B462146179A6E
:104DD000059800F09FF9054404E030205A461799E1
:104DE00090476D1C0099481E00900029F5DC08E0F2
:104DF000029802995A460078491C029117999047E7
:104E00006D1CBAF10001AAF1010AF1DC65E10000B4
:104E10000928010030313233343536373839616290
:104E20006364656600000000303132333435363754
:104E300038394142434445460000000000F058F92B
:104E40000544761C307800287FF4ECAD19B0284674
:104E5000BDE8F08F620700D4062709F1070222F0AF
:104E6000070CFCE80223E14603F000485FEA080C67
:104E700002D00FF2702C0DE05FEA045C02D50FF255
:104E8000682C07E05FEAC47C02D00FF2602C01E0DE
:104E9000AFF2700C4FF0FF3823F00043CDF850C054
:104EA00065280CD006DC452809D046281DD04728A7
:104EB0003DD13DE0662818D067287ED138E000213A
:104EC000112F01DB112000E0781CCDE9000106A9BB
:104ED0000EA8FFF7DDFCDDE90F010E9A039100211A
:104EE000009207F1010A04914DE04FF00040009755
:104EF000CDE9011006A90EA8FFF7CAFCDDE90F02F3
:104F000003920E9B11990022DDF80CA000930492ED
:104F100011B9791C00EB010AB7EB0A0004D4C0F107
:104F2000FF3007F1010A0490AAEB0700019044E06A
:104F3000012F00DA01270021112F01DD112000E0EF
:104F40003846CDE9000106A90EA8FFF7A1FCDDE96E
:104F50000F010E9A0391002104910092BA46210795
:104F60000CD40399514500DA8A46BAF1010F05DDE8
:104F7000009AAAF10101515C302908D0B84202DA46
:104F800010F1040F06DA0121CDE9011015E0AAF1B4
:104F90000101E9E7002805DC049901440491AAEB2A
:104FA000000102E0411C514500DD8A460499401A87
:104FB000401C01904FF000400290200704D401985B
:104FC000504501DBCDF8048000208DF84F00029899
:104FD0000DF14F07B0F1004F25D02B200E90029815
:104FE0004FF0020800280CDA404202902D200E906B
:104FF00007E00A210298FBF78DFB3031029007F899
:10500000011DB8F10001A8F10108F2DC02980028A6
:10501000EFD1791E0E980870307800F0200040F033
:10502000450007F8020D12A8C01B00F107081498EC
:10503000007800B1012000EB0A01019801EBE0715A
:1050400005984144401A401E0590E00306D45B4693
:105050002146179A059800F05DF8054414980078E9
:1050600018B15A46179990476D1CE00324D55B464A
:105070002146179A059800F04DF805441CE0049865
:10508000002807DBDDE90301884203DD0098405C6E
:10509000179901E0179930205A469047049805F176
:1050A0000105401C04900198401E019004D12E205F
:1050B0005A46179990476D1CBAF10001AAF1010AEE
:1050C000DDDC05E017F8010B5A46179990476D1C77
:1050D000B8F10001A8F10108F4DC5B462146179AFB
:1050E0000598ABE62D0000002B000000200000001A
:1050F0002DE9F041044600251E461746880404D4D5
:1051000005E039462020B0476D1C641EF9D52846BD
:10511000BDE8F0812DE9F041044600251E46904689
:10512000C80301D5302700E02027880404D505E016
:1051300041463846B0476D1C641EF9D52846BDE887
:10514000F0810A68531C0B601070704710B500287E
:1051500021D0114B0022001F196803E0814203D8BF
:105160000A4649680029F9D152B11368841A9C4251
:1051700004D1006818441060104602E0506000E05E
:10518000186039B102680B1A934203D10B681A44B4
:1051900002604968416010BD9400002086B0FCF7B1
:1051A000E5FFFFF7F4F9FEF783FF4648416941F058
:1051B000010141614069002200F0010000901146A8
:1051C0000D20FDF731F80D20FDF720F83F483E494E
:1051D000002401604FF41651C0E901140C21C46091
:1051E000C0E904418461C461FDF7BBFEFEF740FFE6
:1051F000FEF7FAFFFFF714F8364835494FF48045BB
:1052000001603549C0E90114C0E903454461846186
:10521000C4610462FCF7F0FCFFF71EF801208DF872
:105220000800FFF769FA0120FBF704FC2B4E01226E
:1052300011463046FCF7D5FC6420FCF787FBFEF7EF
:10524000EBFA0020FEF7D4FA0120FEF74DFC072010
:10525000CDE9000404231A46022103A8FEF7A4FCAA
:1052600001224FF4FA6300211046FEF7B9FE6420D4
:10527000FCF76CFB00231A4619461846FEF7B0FEF1
:105280006420FCF763FB00231A46194603A8009428
:10529000FEF760FDFBF7D6FB2C46114D214630464C
:1052A000FCF792FC024621462846FCF79AFC02A82D
:1052B000FEF7FEFF02A8FBF7B3FE02A8FBF7A6FC71
:1052C000ECE70000001002400038014048020020D6
:1052D00000540040FC000020A0860100000C0140AA
:1052E00000100140F0B50B30154D20F007010024EF
:1052F000144A0FE003688B420BD38B4205D95E1A28
:1053000043184768C3E9006700E04368136002C0C0
:1053100004E0021D10680028ECD12046002802D1CC
:10532000286808B10020F0BD064A07481060074A07
:10533000121A22F00702C0E9002401202860D7E7F2
:105340009800002094000020D4020020E0290020D2
:10535000000000000000000000000000000000004D
:10536000000000000000000000000000000000003D
:10537000000000000000000C000C000C000C000CF1
:10538000000C000C000C000C000C000C0000000CC9
:10539000000C0000000000000000001B001B001BB0
:1053A000001B001B000000000000000000000000C7
:1053B0000000000000000000000000000000801954
:1053C000801980198019C07FC07F80190033C07F89
:1053D000C07F0033003300330033000000000000C2
:1053E0000000001E003F807580650074003C001EB8
:1053F00000078005806580658075003F001E000401
:10540000000400000000007000D840D8C0D880D947
:1054100000730006000C801BC036C066C046C00684
:1054200080030000000000000000001E003F003369
:1054300000330033001E000CC03CC06680638061F6
:105440008063C03E801C0000000000000000000CD3
:10545000000C000C000C000C00000000000000001C
:10546000000000000000000000000000000000003C
:10547000800000010003000600060004000C000C80
:10548000000C000C000C000C0004000600060003D9
:1054900000018000002000100018000C000C000427
:1054A0000006000600060006000600060004000CC8
:1054B000000C0018001000200000000C002D003F20
:1054C000001E00330000000000000000000000008B
:1054D00000000000000000000000000000000000CC
:1054E0000000000C000C000C000CC0FFC0FF000C02
:1054F000000C000C000C0000000000000000000088
:10550000000000000000000000000000000000009B
:1055100000000000000000000000000C000C00046F
:10552000000400080000000000000000000000006F
:10553000000000000000001E001E0000000000002F
:10554000000000000000000000000000000000005B
:10555000000000000000000000000000000000004B
:105560000000000C000C0000000000000000000320
:10557000000300030006000600060006000C000CF5
:10558000000C000C001800180018000000000000BB
:105590000000001E003F0033806180618061806DEB
:1055A000806D8061806180610033003F001E0000DB
:1055B0000000000000000006000E001E003600265D
:1055C00000060006000600060006000600060006AB
:1055D00000060000000000000000001E003F807375
:1055E00080618061800100030006000C001800301B
:1055F0000060807F807F0000000000000000001C31
:10560000003E006300630003000E000E00038001F3
:10561000800180618073003F001E000000000000D8
:1056200000000006000E000E001E001E00160036D0
:1056300000360066807F807F0006000600060000BE
:10564000000000000000007F007F0060006000603C
:10565000006E007F80638001800180618073003F65
:10566000001E0000000000000000001E003F80330C
:1056700080610060006E007F807380618061806166
:105680008033003F001E0000000000000000807F0B
:10569000807F80010003000300060006000C000C60
:1056A000000C00080018001800180000000000009E
:1056B0000000001E003F8063806180610021001EA9
:1056C000003F8061806180618061003F001E0000BA
:1056D000000000000000001E003F00738061806138
:1056E00080618073803F801D800180610073003F76
:1056F000001E00000000000000000000000000008C
:105700000000000C000C0000000000000000000081
:105710000000000C000C0000000000000000000071
:105720000000000000000000000C000C0000000061
:10573000000000000000000C000C00040004000841
:10574000000000000000000080008003000E003810
:1057500000600038000E80038000000000000000A0
:105760000000000000000000000000000000807F3A
:10577000807F00000000807F807F0000000000002C
:105780000000000000000000000000000000000019
:1057900000400070001C000780010007001C007022
:1057A0000040000000000000000000000000001F9A
:1057B000803FC071C060C000C00180030007000EC0
:1057C000000C000C0000000C000C000000000000A9
:1057D0000000001E003F803180718063806F806D0B
:1057E000806D806F806700600032003E001C00000A
:1057F000000000000000000E000E001B001B001B3C
:10580000001B80318031803F803F8031C060C060AC
:10581000C0600000000000000000007C007E00630B
:10582000006300630063007E007E0063806180612E
:105830008063007F007E0000000000000000001E6A
:10584000003F8031806100600060006000600060A7
:10585000006080618031003F001E000000000000F9
:105860000000007C007F0063806380618061806154
:1058700080618061806100630063007E007C0000C5
:10588000000000000000807F807F006000600060FA
:105890000060007F007F0060006000600060807F2B
:1058A000807F0000000000000000807F807F00609B
:1058B000006000600060007F007F006000600060AA
:1058C0000060006000600000000000000000001E9A
:1058D000003F803180610060006000608063806311
:1058E000806180618031803F001E00000000000068
:1058F0000000806180618061806180618061807F63
:10590000807F806180618061806180618061000052
:10591000000000000000003F003F000C000C000CE5
:10592000000C000C000C000C000C000C000C003FE4
:10593000003F0000000000000000800180018001A5
:10594000800180018001800180018001806180618F
:105950008073003F001E0000000000000000C060D7
:105960008061006300660066006C0078007C006661
:105970000066006380618061C0600000000000007C
:105980000000006000600060006000600060006077
:1059900000600060006000600060807F807F000029
:1059A000000000000000C071C071C07BC07AC06AF6
:1059B000C06AC06EC064C060C060C060C060C060CB
:1059C000C0600000000000000000807180718079DC
:1059D00080798079806D806D806D8065806780675B
:1059E0008067806380630000000000000000001EEC
:1059F000003F0033806180618061806180618061EF
:105A0000806180610033003F001E00000000000044
:105A10000000007E007F8063806180618061806320
:105A2000007F007E00600060006000600060000099
:105A3000000000000000001E003F00338061806114
:105A40008061806180618061806580670033803F14
:105A5000401E0000000000000000007E007F806308
:105A6000806180618063007F007E00660063006368
:105A700080618061C0600000000000000000000E36
:105A8000001F8031803100300038001E0007800385
:105A9000806180618031003F001E00000000000036
:105AA0000000C0FFC0FF000C000C000C000C000C3C
:105AB000000C000C000C000C000C000C000C000092
:105AC0000000000000008061806180618061806171
:105AD0008061806180618061806180618073003F4E
