:020000040800F2
:10000000A0070020010100087B2D0008C92000087E
:10001000792D0008A5080008A530000800000000A0
:10002000000000000000000000000000592E000841
:10003000A7080008000000007D2D00085B2E0008C6
:100040001B0100081B0100081B0100081B01000820
:100050001B0100081B0100081B0100081B01000810
:100060001B0100081B0100081B0100081B01000800
:100070001B0100081B0100081B0100081B010008F0
:100080001B0100081B010008DD0700081B01000818
:100090001B0100081B0100081B0100081B010008D0
:1000A0001B0100081B0100081B0100081B010008C0
:1000B0001B0100081B0100081B0100081B010008B0
:1000C0001B0100081B0100081B0100081B010008A0
:1000D0001B010008993000081B0100081B010008E3
:1000E0001B0100081B0100081B010008DFF80CD0F1
:1000F00000F062FB00480047593E0008A0070020BE
:100100000648804706480047FEE7FEE7FEE7FEE7B1
:10011000FEE7FEE7FEE7FEE7FEE7FEE7C12E00088A
:10012000ED000008202A04DB203A21FA02F0002129
:10013000704721FA02F3D040C2F1200291400843F7
:1001400019467047D2B201E000F8012B491EFBD2DC
:1001500070470022F6E710B513460A4604461946D2
:10016000FFF7F0FF204610BD2DE9FE4F804681EAE3
:100170000300C00F0C46009021F0004123F0004521
:10018000B8EB0200A94105D24046214690461C46E4
:100190000B46024623F00040104347D0270DC7F31B
:1001A0000A00C3F30A510290401A019040286BDA0A
:1001B000C3F3130040F4801B0098924620B1002343
:1001C000D2EB030A63EB0B0B01985946C0F14002D6
:1001D000504600F0E3F906460D4650465946019A4E
:1001E00000F0EBF910EB08006141002487EA11529E
:1001F00084EAE7731A4340D0009A62B3019A012A55
:100200004FEA075215DC001B61EB02014FF0004280
:1002100002EA0752CDE90042001C41F58011324646
:100220002B4600F022FA03B0BDE8F08F404621468D
:10023000F9E7001B61EB0201001C41F58013001877
:100240005B412018A2F5001747EB030140EAD57087
:10025000B6196D4111E06D084FEA360645EAC075E2
:100260004FEA0752001B61EB0201001C41F58011AF
:1002700049084FEA30000019514132462B4603B07D
:10028000BDE8F04F00F0E2B90098012240000023E1
:10029000D0EB020263EBE073009821464FEAE07472
:1002A000B8EB000061EB0401E9E783F000435BE792
:1002B00081F0004158E72DE9FE4F81EA030404F084
:1002C000004421F0004100944FF0000B23F0004364
:1002D00050EA01045ED052EA03045BD0C3F30A542F
:1002E000C1F30A552C44A4F2F3340194A0FB025448
:1002F000C1F3130141F48011C3F3130343F48013DA
:1003000001FB024400FB034E840A970A44EA81542D
:1003100047EA8357A4FB076802958D0A05FB07850A
:100320004FEA932C04FB0C542705029D4FEA065814
:1003300047EA1637B5EB08056EEB070C870E920EF1
:1003400047EA811742EA8312A7FB0201B6EB0B01D1
:1003500064EB00042B0D43EA0C335E1844EB1C5095
:10036000DA465146E7FB0201C5F313044FEA0B33AB
:1003700043EA14534FEA0432019C43EA0603A4F112
:100380000C040294009CCDE900B400F06EF903B0B7
:10039000BDE8F08F00200146F9E72DE9F04D81EA34
:1003A000030404F0004B21F0004514464FF0000A0E
:1003B00023F0004150EA050220D054EA01021DD08A
:1003C000C5F30A570246C5F31303C1F31300C1F383
:1003D0000A5640F4801543F48013A7EB0608101B5F
:1003E000D64608F2FD3873EB050002D308F1010888
:1003F00001E092185B41B8F1000F03DA00200146DA
:10040000BDE8F08D00204FF48011064684460EE0D2
:10041000171B73EB050705D3121B63EB050306439C
:100420004CEA010C49084FEA300092185B4150EA4F
:100430000107EDD152EA030012D082EA040083EAF8
:100440000501084305D0101BAB4106D20122002351
:1004500006E000224FF0004302E06FF0010253106B
:100460001AEB06004CEB085110EB0A0041EB0B01B4
:10047000BDE8F04D00F0EAB870B521F00043034349
:100480000CD0C1F30A550024D5EB040564EB04033A
:10049000D617AD1AB34102DB0020014670BD20180B
:1004A00041EB025170BD96230022114600F0A0B826
:1004B00000F0004230F000400AD0C10D01F560713B
:1004C000C0F3160042EA0151C208400711437047C9
:1004D00000200146704701F0004330B421F0004194
:1004E00050EA010206D00A0DA2F56072C1F31301B1
:1004F000002A02DC30BC00207047440F44EAC104EB
:10050000C100E01830BC00EBC25000F068B830B554
:100510000B46014600202022012409E021FA02F5C1
:100520009D4205D303FA02F5491B04FA02F528445B
:10053000151EA2F10102F1DC30BD2DE9F05F054688
:10054000002092469B4688460646814640241BE092
:100550002846414647462246FFF7E4FD53465A46A1
:10056000C01A914110D311461846224600F016F8E1
:100570002D1A67EB01084F4622460120002100F0AA
:100580000DF817EB00094E41201EA4F10104DFDC39
:10059000484631462A464346BDE8F09F202A04DB00
:1005A000203A00FA02F1002070479140C2F1200386
:1005B00020FA03F3194390407047202A06DBCB173B
:1005C000203A41FA02F043EAE07306E041FA02F30E
:1005D000D040C2F1200291400843194670470029DB
:1005E000A8BF7047401C490008BF20F001007047B9
:1005F00010B4B0FA80FC00FA0CF050EA010404BF19
:1006000010BC704749B1CCF1200421FA04F411FA6E
:100610000CF118BF012121430843A3EB0C01CB1DB2
:100620004FEA00614FEA102042BF002010BC704723
:1006300000EBC35010440029A4BF10BC7047401CFD
:10064000490008BF20F0010010BC704710B5141E0F
:1006500073F1000408DA401C41F1000192185B417B
:100660001A4301D120F0010010BD2DE9F04D924652
:100670009B4611B1B1FA81F202E0B0FA80F2203269
:100680009046FFF78BFF04460F4640EA0A0041EA16
:100690000B0153465A46084313D0114653EA010052
:1006A00019D0C8F140025046FFF73CFD05460E4602
:1006B000504659464246FFF771FF084305D00120D6
:1006C00004E020463946BDE8F08D0020054346EAA7
:1006D000E0762C4337430A986305E40AA0EB080050
:1006E0000022FD0A44EA47540A3002D500200146A0
:1006F000E9E7010510196941DDE90845001969417B
:10070000BDE8F04DA2E70EB5C10F80EAE0700844E5
:10071000CA07002140F233438DE80E000A460B461B
:10072000FFF7A3FF03B000BDC1F30A52C1F31301E9
:1007300040F2FF3341F480119A4202DA0020014670
:10074000704740F233439A42A2F2334202DC5242F3
:10075000FFF7E8BCFFF722BF30B5041E71F10004BB
:1007600004DB4FF00044404264EB0101141E73F1BE
:10077000000405DB1C464FF00043524263EB0403C8
:100780008B4208BF824230BD30B5041E71F10004B7
:1007900004DB4FF00044404264EB0101141E73F18E
:1007A000000405DB1C464FF00043524263EB040398
:1007B000994208BF904230BD064C074D06E0E06804
:1007C00040F0010394E8070098471034AC42F6D398
:1007D000FFF790FC2043000840430008014800F068
:1007E00048B900002C00002070B5044600688168FC
:1007F000C943C9071CD1816821F00101816000F063
:100800002DFC05460FE000BF00F028FC401B02282D
:1008100009D9A06A40F01000A062E06A40F001002F
:10082000E062012070BD20688068C043C007EBD043
:10083000002070BDF8B50026044600960068816867
:10084000C943C90728D0816841F00101816013487C
:1008500013490068B0FBF1F000E0401E0090002852
:10086000FBD100F0FBFB054611E000BF00F0F6FBFA
:10087000401B02280BD9A06A40F01000A062E06A79
:1008800040F00100E06284F824600120F8BD206897
:100890008068C043C007E9D10020F8BD18000020DF
:1008A00040420F00FEE7704770470000F8B5002493
:1008B000009490F824202546012A12D0012280F8C5
:1008C00024204A681F23072A0DD20668776B521E20
:1008D00002EB820293409F430B6893401F43776370
:1008E00019E00220F8BD06680D2A0AD2376BD21F24
:1008F00002EB820293409F430B6893401F43376390
:1009000009E0F76A0D3A02EB820293409F430B68BD
:1009100093401F43F7620A68072306680A2A0AD32E
:10092000F7680A3A02EB420293409F438B68934078
:100930001F43F76008E0376902EB420293409F4390
:100940008B6893401F4337610A68102A01D0112A2F
:1009500020D1124B02689A4217D193681B0219D416
:10096000936843F4000393600968102912D10C497D
:100970000C4A0968B1FBF2F101EB8101490000E08A
:10098000491E00910029FBD104E0816A41F0200159
:100990008162012480F824502046F8BD00240140E3
:1009A0001800002040420F002DE9F0410068244962
:1009B000884243D1234800F059F8FFF774FDFFF750
:1009C00077FD4FF0663632461F4BFFF774FC6FF031
:1009D0000B02FFF751FDFFF77EFDFFF769FD1B4F8F
:1009E00004460D4600223B46FFF765FC0022184BEB
:1009F000FFF75EFC2B462246FFF7CFFCFFF76BFDAF
:100A0000FFF756FD00223B46FFF7C7FC03F076F8E0
:100A10000022104BFFF7C1FC0F4A104BFFF7A4FB5D
:100A200002460B4600200E49FFF7B7FC32460D4B3D
:100A3000FFF73BFCFFF74FFD0B494860BDE8F08135
:100A4000002401402C00002066660A400088C34054
:100A5000001DE04000DCAE4083DBB5DCE1796B3F9C
:100A60000000F03F66127140040000200068C06C76
:100A7000704710B5044600684168890626D50168AC
:100A8000890723D5A16AC90603D4A16A41F400717C
:100A9000A1628168C1F34241072910D1217B71B95C
:100AA000416821F020014160A06A20F48070A062BA
:100AB000A06AC00403D4A06A40F00100A0622046EE
:100AC000FFF772FF21686FF012000860206841682C
:100AD00009062ED5016849072BD5A16AC90603D49A
:100AE000A16A41F40051A1628168C1F30231072972
:100AF00009D04168490515D48168C1F342410729ED
:100B000010D1217B71B9416821F080014160A06A58
:100B100020F48050A062A06AC00503D4A06A40F00F
:100B20000100A0622046FFF7BFFE21686FF00C00B5
:100B300008602068416849060DD50068C0070AD0E2
:100B4000A06A40F48030A062204600F093F821684B
:100B50006FF00100086010BD2DE9F0414FF0000773
:100B600004003D467ED0A06A002628B9E66284F8DB
:100B70002460204600F080F82046FFF735FEA16A89
:100B8000C90600D420B1A06A40F01000A06269E05C
:100B9000A16A21F4885141F00201A1626268E16911
:100BA000237B0A4347EA43010A43A1684FF4807755
:100BB000B94209D0012907D05FF0000194F814C0B0
:100BC000BCF1010F02D00AE03946F7E7F3B1A36A9E
:100BD00043F02003A362E36A43F00103E362236866
:100BE000D3F804C02CF4694C4CEA010CC3F804C0DF
:100BF00021688B68DFF870C003EA0C0313438B6035
:100C0000A168B9420BD0012909D00CE0DFF85CC023
:100C1000A3690CEB43330B4343F40061DFE7218A04
:100C20000D05A5F580152168CB6A23F470032B43CD
:100C3000CB62216889680E4B1940914208D1E66267
:100C4000A16A21F0020141F00101A162BDE8F08139
:100C5000A06A20F0020040F01000A062E06A40F0BC
:100C60000100E0620120F1E7FDF7E1FF00E0FFFF96
:100C7000FE0E1FFF7047000000B585B000210091F7
:100C800001910291039100681249884220D11248D3
:100C9000816941F400718161816901F400710491FD
:100CA000816941F0040181618069694600F00400B6
:100CB00004900120009003200190084800F0D4F82F
:100CC00000221146122000F0BFFB122000F0AEFB04
:100CD00005B000BD002401400010024000080140A2
:100CE00070B5044690F8240001280DD0012084F846
:100CF00024002046FFF79EFD02004FF0000005D0C3
:100D000084F82400104670BD022070BDA16A40F630
:100D10000163994341F48071A162224D2368224905
:100D2000AB4218D10E6816F4702F14D0A66A46F4A0
:100D30008016A6620E68760505D5A66A26F40056CA
:100D400046F48056A662A66AF6040AD5E66A26F03C
:100D50000606E66206E0A66A26F48016A6625E68CB
:100D6000E9E7E06284F824006FF002001860206870
:100D7000436843F02003436020688368C3F3424321
:100D8000072B05D1A84208D1096811F4702F04D0AF
:100D9000816841F480118160B4E7816841F4A00169
:100DA000F9E70000002801400424014010B590F844
:100DB00021100024022903D00421816301243DE095
:100DC00001680A6822F00E020A6001680A6822F0CF
:100DD00001020A601A4A0168914201D1012121E011
:100DE000174A1432914201D110211BE0144A2832D3
:100DF000914201D1891515E0114A3C32914201D14D
:100E000089140FE00E4A5032914202D14FF48031E2
:100E100008E00B4A6432914202D14FF4801101E0A4
:100E20004FF08071064A083A5160012180F8211084
:100E3000002180F82010416B01B18847204610BD89
:100E40000800024070B5044600F008F90546601C31
:100E500002D004480078044400F000F9401BA0428E
:100E6000FAD370BD0C0000202DE9F84FDFF8B891DF
:100E7000002409F1040A0AF1040B23460F270BF1A1
:100E8000040EC9E00125A5402A40AA427DD1674E43
:100E9000D1F804C0ACEB0608B44532D014DCBCF188
:100EA000030F3AD009DCBCF1000F2AD0BCF1010FCE
:100EB0001CD0BCF1020F31D11DE0BCF1110F17D0D5
:100EC000BCF1120F2AD119E0B8F5881F19D006DC41
:100ED000B8F5803F15D0B8F5801F1FD111E0B8F5E7
:100EE000001F0ED0B8F5041F18D10AE0CB6815E03A
:100EF000CB681B1D12E0CB6808330FE0CB680C33C6
:100F00000CE08B682BB1012B4FF0080303D0456137
:100F100004E0042302E0056100E00023FF2A01D879
:100F2000064601E000F104064FEA840501D9A5F167
:100F30002005D6F8008007FA05FC28EA0C0803FA19
:100F400005F548EA0508C6F800804D68ED0062D551
:100F5000374DAE6946F00106AE61AD6924F0030677
:100F600005F001050095334D06EB050CDCF8085043
:100F7000A607360F07FA06F825EA0805DFF8B88055
:100F8000404503D14FF0000817E044E0DFF8AC80A3
:100F9000404502D14FF001080FE0DFF8A480404542
:100FA00002D14FF0020808E0DFF89880404502D1F6
:100FB0004FF0030801E04FF0040808FA06F848EA89
:100FC0000508CCF808804D68D9F80060ED034D465F
:100FD00001D5164300E096432E604D68DAF80060B4
:100FE000AD03554601D5164300E096432E604D688B
:100FF000DBF80060ED025D4601D5164300E0964344
:101000002E604D68DEF80060AD02754601D51643CE
:1010100000E096432E60641C0D682A46E5407FF48C
:1010200031AFBDE8F88F000000040140000011104E
:10103000001002400000014000080140000C014087
:1010400000100140001401408068084000D00120D9
:1010500070470AB1016170470904FBE701488068E5
:10106000704700000C00002070B5040025D094F8F3
:101070003D00002520B984F83C50204600F050F98E
:10108000242084F83D002068016821F001010160FE
:101090002068016841F4004101602068016821F482
:1010A0000041016000F00EFB4D4A6168914201D899
:1010B0004C4900E04C49884201D2012070BD4B49A7
:1010C0002368B0FBF1F15E6826F03F060E435E60D8
:1010D0006368934206D94FF4967359434FF47A7379
:1010E000B1FBF3F12368491C1E6A26F03F06314329
:1010F00019626168914210D84900401EB0FBF1F2BC
:10110000521CC2F30B02042A01D2042022E0B0FBDD
:10111000F1F0401CC0F30B001CE0A268F2B301EB3D
:10112000C10303EB0116431EB3FBF6F35B1C43F450
:1011300080431B0549D092B301EBC10202EB0111C0
:10114000401EB0FBF1F0401CC0F30B0040F48040A7
:1011500040F400402168CA694CF6FF739A4310437B
:10116000C861D4E9071001432068026822F0C00278
:1011700011430160D4E9030101432068826848F209
:10118000FF339A4311438160D4E905010843216884
:10119000CA6822F0FF021043C86001E00EE016E0CA
:1011A0002068016841F0010101602564202084F875
:1011B0003D00256384F83E50002070BD01EB4106E0
:1011C000431EB3FBF6F35B1CB3E70120C2E701EB60
:1011D0004101401EB0FBF1F0401CC0F30B00B7E72B
:1011E000A086010080841E0000093D0040420F00DF
:1011F0002DE9FF4F83B09A46DDE9119793460446E7
:10120000DDF84080FFF72AFF054694F83D002028CE
:101210007FD11923012240492046009500F0E6FFC6
:10122000002876D194F83C00012872D0012084F87F
:101230003C0020680168C90703D1016841F0010141
:1012400001602068016821F400610160212084F8B8
:101250003D00402084F83E0000262664C4F8248027
:10126000A4F82A90608D20852C48E062CDE90075B5
:1012700053465A462046049900F03EFF70B930E0CC
:101280002A463946204601F030F858B1206C04282F
:1012900004D12068016841F400710160012007B0A9
:1012A000BDE8F08F606A216800780861606A401CC0
:1012B0006062218D491E89B22185628D521E628530
:1012C00022685369DB435B070BD469B10078106176
:1012D000606A401C6062208D401E2085608D401E2B
:1012E0006085208D0028CBD12A463946204600F063
:1012F00057FF0028CAD154F83D0B016841F4007132
:101300000160202004F81E09E67766770020C6E712
:10131000FFE70220C3E70000020010000000FFFF0B
:1013200010B586B0002100910191029103910068EF
:101330000F4988421AD10F4CA06940F00800A06103
:10134000A069694600F008000490C02000901220B7
:101350000190032003900848FFF786FDE06940F400
:101360000010E061E06900F40010049006B010BDC8
:101370000054004000100240000C01400248816807
:1013800002781144816070470C000020074810B5B6
:10139000016841F010010160032000F075F80020A1
:1013A00000F006F800F024F8002010BD00200240F4
:1013B00070B50D4D04464FF47A712878B1FBF0F00A
:1013C0000A490968B1FBF0F000F0C5FC48B9102CDF
:1013D00007D200222146501E00F036F800206C6033
:1013E00070BD012070BD00000C000020180000201E
:1013F0000C4808B5816941F001018161816901F002
:1014000001010091C16941F08051C161C06900F0E2
:10141000805000900448416821F0E06141F0007183
:10142000416008BD0010024000000140002809DBB7
:1014300000F01F02012191404009800000F1E020EE
:10144000C0F8001170470000F0B40E4B1B680C464A
:10145000C3F30223C3F10705042D00D90425191D88
:10146000072901D2002300E0DB1E012606FA05F160
:10147000491E214099409E40761E16403143F0BCE3
:1014800001F022BE0CED00E0064900F007020868FA
:101490004FF6FF03184040EA0220034A1043086059
:1014A000704700000CED00E00000FA052DE9F8435C
:1014B00005460078354CC00754D0E0690026C000CE
:1014C00008D4E06940F08050E061E069012600F056
:1014D000805000902E480168C90512D401688046EA
:1014E00041F480710160FFF7B9FD074605E000BFD8
:1014F000FFF7B4FDC01B642823D8D8F80000C0054E
:10150000F6D5206A10F4407021D0A98801F440710A
:1015100081421CD0206A1F49012220F440700A60D9
:1015200000220A602062C00711D0FFF797FD07462E
:1015300041F2883808E000BFFFF790FDC11B41452C
:1015400002D90320BDE8F883206A8007F4D5206A19
:10155000696820F44070084320621EB1E06920F001
:101560008050E0612878800705D56068A96820F47C
:101570004040084360602878C00605D56068E96887
:1015800020F48000084360600020DBE70010024088
:1015900000700040400442422DE9F0470F4605002C
:1015A00061D0434E306800F00700B84209D230687D
:1015B00020F0070038433060306800F00700B84280
:1015C00051D128683B4C810712D5400703D560688C
:1015D00040F4E06060602878000703D5606840F45C
:1015E000605060606068A96820F0F00008436060A7
:1015F0002878C00728D06868012810D02168022800
:1016000010D0890700292EDA616821F00301014317
:101610006160FFF723FD804641F288390DE02168C3
:101620008903EFE78901EDE7FFF718FDA0EB08015B
:10163000494502D90320BDE8F0876068696800F079
:101640000C00B0EB810FEFD1306800F00700B8421A
:101650000BD9306820F0070038433060306800F064
:101660000700B84201D00120E5E72878400705D5FA
:101670006068E96820F4E06008436060287800074B
:1016800006D56068296920F4605040EAC1006060B6
:1016900000F038F86168084AC1F30311515CC84092
:1016A0000649086006480068FFF782FE0020C2E78E
:1016B0000020024000100240C44200081800002030
:1016C000100000200448054900684968044AC1F335
:1016D0000221515CC84070471800002000100240F1
:1016E000D44200080448054900684968044AC1F327
:1016F000C221515CC8407047180000200010024011
:10170000D442000812A185B00FC98DE80F0014A0C3
:10171000144A006804905168134801F00C03042B2C
:1017200010D0082B0ED1C1F38343C9031DF8030069
:101730000AD5516804AAC1F34041515C0A4A50439A
:10174000B0FBF1F005B0704708494843FAE70000E4
:1017500002030405060708090A0B0C0D0E0F1010F2
:10176000010200000010024000127A0000093D0052
:101770002DE9F84F040070D02078C04DC00749D043
:101780006868C0F38100012807D06868C0F3810051
:10179000022809D16868C00306D52868800339D5B6
:1017A00060680028E7D035E06068B0F5803F0BD076
:1017B00010B1B0F5A02F11D0286820F48030286037
:1017C000286820F4802002E0286840F480302860F7
:1017D000606890B1FFF742FC06460AE0286840F4D2
:1017E00080202860F0E700BFFFF738FC801B6428EA
:1017F00073D828688003F7D50CE0FFF72FFC064666
:1018000005E000BFFFF72AFC801B6428F0D8286899
:101810008003F7D420789A4E80074FF001094FF0EB
:10182000000839D5686810F00C0F07D06868C0F35D
:101830008100022809D16868C00306D4286880079F
:1018400014D52069012808D110E02069B0B1C6F88C
:101850000090FFF703FC074605E00AE1FFF7FEFBF7
:10186000C01B0228C4D828688007F7D5286861699A
:1018700020F0F80040EAC10028600DE0C6F80080C2
:10188000FFF7ECFB074604E0FFF7E8FBC01B02286C
:1018900023D828688007F7D4207800072CD579480A
:1018A000A169D9B1C0F80090FFF7D8FB074604E062
:1018B000FFF7D4FBC01B02280FD8686A8007F7D552
:1018C00071484FF4FA510068B0FBF1F0009000BF8E
:1018D0000098411E0091FAD20EE080E0C0F800802E
:1018E000FFF7BCFB074604E0FFF7B8FBC01B02286C
:1018F00075D8686A8007F7D42078400760D5E86912
:101900000027C00008D4E86940F08050E861E86929
:10191000012700F0805000905C480168C90513D48D
:101920000168834641F480710160FFF797FB8246AE
:1019300006E000BFFFF792FBA0EB0A0064284ED838
:10194000DBF80000C005F5D5E06801280AD008B131
:10195000052813D0286A20F001002862286A20F0A8
:10196000040002E0286A40F001002862E06841F2C9
:10197000883B98B1FFF772FB82460BE0286A40F083
:1019800004002862EEE700BFFFF768FBA0EB0A0146
:1019900059455AD8286A8007F6D50CE0FFF75EFB58
:1019A000824605E0FFF75AFBA0EB0A0159454CD8E7
:1019B000286A8007F6D41FB1E86920F08050E861FA
:1019C000E06988B36968C1F38101022944D0022823
:1019D000C6F8608004D0FFF741FB044638E034E0ED
:1019E000FFF73CFB074604E0FFF738FBC01B02286B
:1019F0002BD828688001F7D4206AB0F5803F05D144
:101A00006868A16820F4003008436860D4E90801E0
:101A10000843696821F4741108436860C6F860904F
:101A2000FFF71CFB044606E025E000BFFFF716FBAE
:101A3000001B022809D828688001F7D51BE000BFE9
:101A4000FFF70CFB001B022802D90320BDE8F88F2A
:101A500028688001F4D40EE00128F7D06868226A73
:101A600000F48031914204D1616A00F47010884220
:101A700001D00120EAE70020E8E700000010024062
:101A800000004242800442421800002000700040E2
:101A900070B5040009D0606A002540B12561656118
:101AA000A56294F8510040B10CE0012070BD60685F
:101AB000B0F5827FF4D0E561F2E784F8505020461B
:101AC00000F040F8022084F851002068016821F0FD
:101AD00040010160A088218900F4827001F4044172
:101AE0000843A18901F400610843217C01F002014F
:101AF0000843217D01F001010843218B01F40071AD
:101B00000843217F01F03801084394F8201001F0C8
:101B100080010843218D01F40051084321680860C9
:101B2000A069042101EA1040216848602068C16969
:101B300021F40061C1616565012084F85100002035
:101B400070BD000030B585B000240094019402946B
:101B50000394224D0368224802210322AB421FD185
:101B6000836943F480538361836903F4805304934E
:101B7000836943F00403836180691A4D00F0040017
:101B80000490B020CDE90001039269462846FFF792
:101B90006BF94020CDE9000469462846029419E01B
:101BA000114CA34218D1C36943F48043C361C36994
:101BB00003F480430493836943F0080383618069DD
:101BC000039200F0080004904FF42040CDE900019A
:101BD00069460648FFF748F905B030BD00300140BE
:101BE000001002400008014000380040000C014095
:101BF0002DE9F84F044690F8500000271D46164680
:101C0000894601280DD04FF0010B84F850B0FFF742
:101C100025FA804694F85100BA46012804D00227DC
:101C200093E00220BDE8F88FB9F1000F73D0002EC9
:101C300071D0032084F85100C4F854A0C4F8309047
:101C4000A686E686C4F838A0A4F83CA0A4F83EA076
:101C5000C4F844A0C4F840A0A068B0F5004F09D172
:101C60002068016821F0400101602068016841F4AA
:101C70008041016020680168490603D4016841F091
:101C800040010160E068B0F5006F606803D030B3D8
:101C9000012E24D041E008B1012E1CD1206B216817
:101CA0000088C86006E020688168890709D5216B33
:101CB0000988C160206B801C2063E08E401EE08696
:101CC00009E0FFF7CBF9A0EB0800A84202D3681C9B
:101CD00001D031E07DB3E08E0028E4D120E0206B1C
:101CE00021680078087306E020688168890709D5B3
:101CF000216B09780173206B401C2063E08E401E2D
:101D0000E0860AE0FFF7AAF9A0EB0800A84203D397
:101D1000681C02D010E017E06DB1E08E0028E3D11E
:101D200042462946204601F02AF808B12020606585
:101D3000A06818B106E0FFE7032706E02068C16845
:101D400080680090606D00B1012784F851B084F87C
:101D500050A0384666E710B5401EB0F1807F01D331
:101D6000012010BD4FF0E02460610F21601701F0E9
:101D7000ABF90020A06107202061002010BD704752
:101D800070B5026804461068D168536910F00F0FEF
:101D900052D003F0010501F490762E435FD0C207C4
:101DA00005D0CA0503D5E26B42F00102E2634207A7
:101DB00005D5DA0703D0E26B42F00202E263820744
:101DC00005D5DA0703D0E26B42F00402E2630207B2
:101DD00007D501F020022A4303D0E26B42F008024B
:101DE000E263E26B002A33D0800604D5880602D570
:101DF000204601F07CF820684069E16BC0F3801058
:101E0000090700D428B3204601F063F8206841692F
:101E100049061AD5416921F040014161606BA0B1CA
:101E20002D494163606BFEF7C1FF002810D0606B45
:101E3000416BBDE870400847830610D58B060ED570
:101E40002046BDE8704001F052B82046FFF797FFEA
:101E500070BD2046FFF793FF0020E06370BD0306CE
:101E60002BD50B0629D594F839002128F6D1A06886
:101E7000B0F5805F01D12069B0B1206A411C2162B8
:101E8000216800784860E08C401E0004000CE0846B
:101E9000E4D12068C16821F08001C1602068C16878
:101EA00041F04001C16070BD206A0088C0F30800A5
:101EB0005060206A801C2062E5E74006F3D54806A2
:101EC000F1D5D168204621F04001D160202184F86D
:101ED000391000F0F8F870BDC32E000870B504008A
:101EE00004D094F83900002510B106E0012070BD3F
:101EF00084F83850204600F023F8242084F8390074
:101F00002068C16821F40051C160204601F036F814
:101F10002068016921F4904101612068416921F044
:101F20002A0141612068C16841F40051C160E56344
:101F3000202084F8390084F83A00002070BD0000A9
:101F400030B585B000240094019402940394006895
:101F5000184988422CD11848816941F48041816137
:101F6000816901F480410491816941F0040181613A
:101F70008069124D00F0040004904FF4007000904E
:101F8000022001900320039069462846FEF76CFF6B
:101F90002815CDE90004694628460294FEF764FF3F
:101FA000002211462520FFF74FFA2520FFF73EFAC1
:101FB00005B030BD0038014000100240000801406B
:101FC00090F83A30202B22D1F9B1F2B190F83830A4
:101FD000012B1CD081628285C2850021C16322222F
:101FE00080F83A2080F838100168CA6842F480729C
:101FF000CA6001684A6942F001024A610068C1682A
:1020000041F02001C160002070470120704702208C
:10201000704770472DE9F843044690F839001F4691
:1020200016460D4620284CD1C5B1BEB194F83800F3
:10203000012846D0012084F838004FF00008C4F889
:102040003C80212084F83900FFF708F8A6848146F7
:10205000E684A068B0F5805F03D004E00120BDE80D
:10206000F883206928B12E465FF0000584F8388097
:102070000EE00026FAE78021204600F0DBFFA0B941
:10208000AEB116F8010B21684860E08C401EE08478
:10209000E08C4B464FF0000200970028EBD14FF048
:1020A0004001204600F0C6FF30B10320D7E735F8E5
:1020B000020BC0F30800E6E7202084F83900002076
:1020C000CDE70220CBE77047FEE701684A69D243BB
:1020D00052050FD46FF480624A61002140F8301F2E
:1020E000202242738173026942F00402026101738B
:1020F00001207047002070472DE9F843044600682E
:102100000D46DDE9089701689846164641F480714E
:1021100001604B4600224FF001112046009700F06D
:1021200065F848B120680068C00502D54FF400701A
:1021300020640320BDE8F883216805F0FE000861F3
:102140003B464A461549204600F084F888B9206885
:102150004169806900903A464946204600F0C5F83A
:1021600048B1206C042804D12068016841F4007152
:1021700001600120DEE7F5B2B8F1010F09D0216856
:10218000300A08613A464946204600F0AEF8002879
:10219000E7D1206805610020CCE7000002000100C3
:1021A00070B516460D4604460DE02046FFF78DFF3C
:1021B00008B1012070BD681C05D0FEF74FFF801BE1
:1021C000A84207D835B120684069C0434007ECD425
:1021D000002070BD002044F8300F20216173A073EF
:1021E000216941F0200121612073E2E72DE9F047E8
:1021F0001E4690460D460446C1F30747DDF8209081
:1022000008E0701C06D0FEF729FFA0EB0900B042E1
:102210000FD876B12068012F18D0806925EA000018
:102220000004000C14D000214145EAD00020BDE894
:10223000F087002044F8300F20216173A0732169DA
:1022400041F02001216120730120F0E74069E5E7BA
:102250000121E9E72DE9F0479A4691460E460446EA
:1022600000254FF02008C1F3074725E020684069AA
:10227000C043400514D42068016841F40071016036
:1022800021686FF480604861256384F83D8084F89C
:102290003E50206C40F00400206484F83C501FE065
:1022A000B9F1FF3F08D0FEF7D9FEA0EB0A0149457E
:1022B0000CD8B9F1000F09D02068012F13D0806924
:1022C00026EA00000004000C0BD0CFE744F8305F92
:1022D00084F80D80A573206940F0200020612573EB
:1022E0000120BDE8F0874069EAE770B516460D4663
:1022F00004460DE02046FFF7E8FE08B1012070BD5E
:10230000681C05D0FEF7AAFE801BA84207D835B18D
:1023100020684069C0430006ECD4002070BD002056
:1023200044F8300F20216173A073216941F020012E
:1023300021612073E2E700002DE9FE4F9146DDE9BF
:102340000C629B468A46202801D32038C0B2224B1B
:1023500000EB4000002103EB400001AC435C635400
:10236000491CC9B20629F9D34FF6FF7006EB4601A6
:10237000009200EA410200EAC6034946504600F0D6
:102380002DF90025A04601275FF0000418F805008C
:1023900007FA04F108420DD0012E15D004FB069077
:1023A00081B205FB06A0334680B21A46CDF800B0D4
:1023B00000F014F9641CE4B2082CE7D36D1CEDB2F4
:1023C000062DE1D3BDE8FE8F09EB04010AEB050001
:1023D0005A4600F055F8EDE7844000082DE9F04733
:1023E0000E464FF4FA740746B4EB460F00D90C467C
:1023F000012291021F48FEF72CFEDFF87C9000229C
:1024000010214846FEF725FE4FEA1728204601F026
:1024100003FE05460020F9B205E000BF05F8008084
:102420002A18801C5170A042F8D37000B0FBF4F160
:10243000B0FBF4F704FB110857B1002606E0A2B286
:102440000A2329460D48FFF7D3FB761CBE42F6D37C
:102450001FFA88F20A2329460848FFF7C9FB012220
:1024600010214846FEF7F5FD2846BDE8F04701F08B
:102470001DBB0000000C014000080140B00000201E
:102480002DE9FE43054651480C46164641888D42CB
:102490007DD2008884427AD2DFF834814FF480679D
:1024A000002239464046FEF7D4FDDFF8289100228D
:1024B00010214846FEF7CDFD2A2000F02BFA01221C
:1024C00039464046FEF7C5FD012210214846FEF779
:1024D000C0FD002210214846FEF7BBFD280A8DF8FA
:1024E00000008DF801506D1C280A8DF802008DF84F
:1024F00003500123042269463748FFF779FB012284
:1025000010214846FEF7A5FD002239464046FEF759
:10251000A0FD002210214846FEF79BFD2B2000F075
:10252000F9F9012239464046FEF793FD01221021B8
:102530004846FEF78EFD002210214846FEF789FD31
:10254000200A8DF804008DF80540641C200A8DF8DF
:1025500006008DF807400123042201A91E48FFF759
:1025600047FB012210214846FEF773FD0022394641
:102570004046FEF76EFD002210214846FEF769FD39
:102580002C2000F0C7F901223946404600E01BE04C
:10259000FEF75FFD012210214846FEF75AFD00229A
:1025A00010214846FEF755FD300A8DF808008DF8D9
:1025B00009600123022202A90748FFF719FB012243
:1025C00010214846FEF745FDBDE8FE8300000020CF
:1025D000000C014000080140B00000202DE9F0414E
:1025E000154C1646069F62881D46904221D22288CD
:1025F00091421ED263888219521E9A4202DB62887F
:10260000121A96B223884A19521E9A4202DB228875
:10261000521A95B24A19521E93B28219521E92B2A0
:1026200000F082F905FB06F13846BDE8F041FFF7FE
:10263000D5BEBDE8F0810000000000202DE9FC4778
:102640009946DDE90A7892460D46044607EB4706AF
:102650000AE0CDE900784B4652462946641CFFF754
:102660006BFE05EB4600C5B220780028F1D1BDE82D
:10267000FC8700000122D1020148FEF7EABC0000FD
:10268000000C014070B5084C054623886288002183
:10269000084600F049F96188208841432846BDE892
:1026A0007040FFF79BBE00000000002010B5FFF750
:1026B000E1FF00F027F900F005F9012000F086F9AC
:1026C0004FF47A70FEF7BEFBCB2000F07FF9392083
:1026D00000F098F92C2000F095F9002000F092F914
:1026E000342000F08FF9022000F08CF9CF2000F0A8
:1026F0006DF9002000F086F9C12000F083F9302048
:1027000000F080F9E82000F061F9852000F07AF906
:10271000002000F077F9782000F074F9EA2000F04A
:1027200055F9002000F06EF9002000F06BF9ED2063
:1027300000F04CF9642000F065F9032000F062F924
:10274000122000F05FF9812000F05CF9F72000F022
:102750003DF9202000F056F9C02000F037F9232081
:1027600000F050F9C12000F031F9102000F04AF9D2
:10277000C52000F02BF93E2000F044F9282000F09D
:1027800041F9C72000F022F9862000F03BF93620FD
:1027900000F01CF9482000F035F93A2000F016F955
:1027A000552000F02FF9B12000F010F9002000F0C2
:1027B00029F9182000F026F9B62000F007F90820C2
:1027C00000F020F9822000F01DF9272000F01AF90E
:1027D000F22000F0FBF8002000F014F9262000F0B1
:1027E000F5F8012000F00EF9E02000F0EFF80F20DE
:1027F00000F008F9312000F005F92B2000F002F973
:102800000C2000F0FFF80E2000F0FCF8082000F08B
:10281000F9F84E2000F0F6F8F12000F0F3F8372038
:1028200000F0F0F8072000F0EDF8102000F0EAF8D2
:10283000032000F0E7F80E2000F0E4F8092000F093
:10284000E1F8002000F0DEF8E12000F0BFF8002001
:1028500000F0D8F80E2000F0D5F8142000F0D2F8DF
:10286000032000F0CFF8112000F0CCF8072000F092
:10287000C9F8312000F0C6F8C12000F0C3F84820A4
:1028800000F0C0F8082000F0BDF80F2000F0BAF802
:102890000C2000F0B7F8312000F0B4F8362000F03A
:1028A000B1F80F2000F0AEF8112000F08FF878207A
:1028B000FEF7C8FA292000F089F8BDE81040002092
:1028C00000F05CB870B50D4D4FF400640022214655
:1028D0002846FEF7BEFBC820FEF7B4FA00221021FE
:1028E0000748FEF7B6FBC820FEF7ACFA214628469B
:1028F000BDE870400122FEF7ACBB0000000C0140B7
:1029000000080140002210210148FEF7A2BB000090
:102910000008014001B501231A4669460148FFF746
:1029200067F908BDB00000202DE9F04107461C46BC
:1029300015460E462A2000F049F8380A00F062F8E1
:10294000F8B200F05FF8280A00F05CF8E8B200F096
:1029500059F82B2000F03AF8300A00F053F8F0B2A2
:1029600000F050F8200A00F04DF8E0B200F04AF80C
:10297000BDE8F0412C2000F029B800002DE9F0411D
:102980000746362000F022F80120FEF75BFA0E4CD5
:10299000F0254FF4A0766FB1012F0DD0022F0DD08E
:1029A000032F05D15FF0E80000F02CF86680258049
:1029B000BDE8F081482002E02820F5E7882000F0FB
:1029C00021F865802680F3E70000002070B50B4CED
:1029D0000546002210212046FEF73BFB0022211570
:1029E0000748FEF736FB2846FFF794FF2046BDE870
:1029F000704001221021FEF72CBB000000080140AE
:102A0000000C014070B50546012291020948FEF70D
:102A100020FB094C002210212046FEF71AFB284615
:102A2000FFF778FF2046BDE8704001221021FEF735
:102A300010BB0000000C0140000801402DE9FF41DF
:102A400000240A9D15B14FF400405BE04FF400757F
:102A50006E004FF4C067082816D2DFE800F01504B6
:102A600006080A0D10132C460EE034460CE03C46D6
:102A70000AE04FF4006407E04FF4206404E04FF4F0
:102A8000406401E04FF46064082910D2DFE801F0EF
:102A900004070A0D0F0D0D0D24F4E07009E004F099
:102AA000400006E004F0800003E0002001E004F4B0
:102AB0008070082A10D2DFE802F004070A0D0F0D1B
:102AC0000D0D20F0380009E000F0080006E000F0ED
:102AD000100003E0002001E000F02000052B10D2E0
:102AE000DFE803F00306090F0C0020F0070009E0FF
:102AF00000F0010006E000F0020003E000F0040036
:102B000000E00020ADF80C004FF4FA64022303A8A3
:102B10008DE819008021002201230248FEF768FB9E
:102B2000BDE8FF815C0000202DE9F8430746002046
:102B30001546DFF87C900E46ADF8000002464FF4D3
:102B400080581C4641464846FEF783FABDF800000F
:102B5000012F23D020F40040ADF8000080B206B36E
:102B600020F40050ADF8000080B2EDB120F48050A8
:102B7000ADF80000BDF80010C4F30B000843ADF839
:102B800000006423022269460A48FFF731F8012257
:102B900041464846FEF75DFABDE8F88340F4004040
:102BA000DAE740F40050DDE740F48050E0E7000051
:102BB000000C0140080100203EB500240D4800949F
:102BC000019402940A49846001600125057304752B
:102BD00005614FF460214460C161FDF7BDFF07202E
:102BE0000094CDE9015069460248FDF75FFE3EBD05
:102BF000002401402C0000202DE9F04F85B0002476
:102C00003D480094019402940394816941F01001BD
:102C10008161816901F010010491816941F0200115
:102C20008161816901F020010491816941F0040111
:102C30008161816901F004010491816941F0080119
:102C400081618069DFF8B4A000F008004FF44045CE
:102C50000490002229465046FEF7FBF9DFF8A0B0A9
:102C600040F60147002239465846FEF7F2F94FF484
:102C70008058012241465846FEF7EBF94FF40049CF
:102C8000002249461F48FEF7E4F900950226012577
:102C90000396CDE9015469465046FEF7E5F8062053
:102CA000CDE90004694617480294FEF7DDF8009765
:102CB0000396CDE9015469465846FEF7D5F803203E
:102CC000CDE90240CDE9008569465846FEF7CCF8CB
:102CD000A803CDE90004694658460294FEF7C4F8FB
:102CE000CDF800900396CDE9015469460548FEF7FA
:102CF000BBF805B0BDE8F08F0010024000100140A5
:102D0000000C0140000801400C480B494FF48022A0
:102D100001604FF48271416000218160C1600161F6
:102D2000C0E905120822C0E90721416281620A2137
:102D3000C162FEF7ADBE000000300140B0000020CF
:102D40000C480B494FF4006201604FF482714160FE
:102D50000021C0E9021292100161C0E9051210229F
:102D6000C0E90721416281620A21C162FEF790BE7B
:102D70000038004008010020FEE77047704738B572
:102D80000B46009204460022802100F009F800283A
:102D900004D0606D40F020006065032038BD000065
:102DA0002DE9F8431E46914688460446089DFEF7E5
:102DB00055F9401B351AFEF751F9074625480068BA
:102DC000C0F3CB30684338E0701C37D0FEF746F9CB
:102DD000C01BA84203D215B1009860B32CE0206854
:102DE000416821F0E00141606068B0F5827F0BD15D
:102DF000A068B0F5004F02D0B0F5806F04D1206814
:102E0000016821F040010160A06AB0F5005F09D1BE
:102E10002068016821F4005101602068016841F4D4
:102E200000510160012084F85100002084F8500016
:102E30000320BDE8F8830025401E009020688168CB
:102E400038EA010004D000214945BDD10020F0E757
:102E50000121F9E7180000207047FEF78FBA30B55E
:102E600093B028216846FDF774F914210AA8FDF7EC
:102E700070F9002401200F9410941194010412940D
:102E80008DE8130004904FF4E010CDE908100225FE
:102E900007956846FEF76CFC0F20CDE90A058020F7
:102EA000CDE90C0402210AA80E94FEF775FB4FF43D
:102EB000404011900F950FA8FEF7F8FA13B030BDFF
:102EC000704710B5406A0021C185C184FEF757FFE5
:102ED00010BD0168CA6822F49072CA6001684A692C
:102EE00022F001024A61202180F83A10704710B5A3
:102EF00090F83A10222901D0022010BD82684FF4C8
:102F000080539A4201D1016921B1816A9A421BD052
:102F10004AB10AE00268816A5268C2F308020A8074
:102F2000816A891C08E0026972B10268526802F085
:102F30007F020A70816A491C8162C18D491E0904A1
:102F4000090CC18503D016E002685268F1E70168F8
:102F5000CA6822F02002CA600168CA6822F480723E
:102F6000CA6001684A6922F001024A61202180F8A2
:102F70003A10FFF74EF8002010BD000070B504466F
:102F800000680169E26821F440511143016121693F
:102F9000A0680843616908432168CA6841F20C636C
:102FA0009A430243CA6020684169A26921F44071D2
:102FB000114341611E492068884202D1FEF792FB0D
:102FC00001E0FEF77FFB00EBC00101EB001260683F
:102FD00064218000B2FBF0F3B3FBF1F36FF018064D
:102FE0007343B2FBF0F5B2FBF0F605EB8305322339
:102FF00003EB0515B5FBF1F5B6FBF1F605F0F005B1
:1030000005EB0615B2FBF0F6B2FBF0F0B0FBF1F009
:103010006FF01802504306EB800003EB0010B0FB8A
:10302000F1F0216800F00F002844886070BD0000B6
:10303000003801402DE9F041984617460E460446F7
:10304000069D1DE0681C1BD02DB1FEF707F8A0EB14
:103050000800A84214D92068C16821F4D071C16069
:103060002068416921F001014161202084F8390084
:1030700084F83A00002084F838000320BDE8F0818D
:103080002068006836EA000004D00020B842D9D099
:103090000020F3E70120F9E70148FEF771BE0000C8
:1030A00060010020FEE700000FB4054B10B503A936
:1030B000044A029800F056F910BC5DF814FB0000B9
:1030C000953A00081C0000200907090E002804DBBF
:1030D00000F1E02080F80014704700F00F0000F1CC
:1030E000E02080F8141D70472DE9F0414F1E00EBE1
:1030F000C7010446D1E9000115461E4637F0060215
:103100000DD02A463346FDF7D6F87F1E04EBC703E1
:10311000D3E90023FDF728F837F00602F1D1022F9A
:1031200025D0042F13D0062F18BFBDE8F0812A4602
:103130003346FDF7C0F8D4E90A23FDF715F82A460F
:103140003346FDF7B8F8D4E90823FDF70DF82A4611
:103150003346FDF7B0F8D4E90623FDF705F82A4613
:103160003346FDF7A8F8D4E90423FCF7FDFF2A460F
:103170003346FDF7A0F8D4E90223FCF7F5FF2A4611
:103180003346FDF798F8D4E90023BDE8F041FCF799
:10319000EBBF00000022134610460149FDF7FDB8C1
:1031A0000000F03F0122FDF767B9002213461046E8
:1031B0001146FDF7F2B802E008C8121F08C1002A44
:1031C000FAD170477047002001E001C1121F002AA8
:1031D000FBD17047014908607047000028000020BB
:1031E0002DE9FF5F82B00021DDE90430020DDDF83A
:1031F00040B0034318D044F61050A2F2FF324243CD
:103200001514119801281FD0A5EB0B00401C5FEA94
:10321000000A4FF000064E4FDFF83891B046504696
:1032200015D5CAF1000413E0119801244AA301281E
:1032300001D16FEA0B010298119AC0E90031C0E98F
:10324000024206B0BDE8F09FCBF10000DFE7044684
:103250000021404A491842EB0450CDE9001012E029
:10326000E00707D032463B4640464946FDF723F883
:103270008046894632463B4610461946FDF71BF804
:1032800006460F466410002CEAD1DDE90401DDE9B1
:103290000023BAF1000F06DAFDF70DF842464B465F
:1032A000FDF709F805E0FDF778F842464B46FDF7D3
:1032B00074F804460E460022284BFDF765FA03D841
:1032C0004FF0FF30014607E00022254B20463146F3
:1032D000FCF74AFFFDF728FA102409E0002C0ADB6E
:1032E0000A220023FDF729F9039B30321A55641E88
:1032F00050EA0102F2D1641C039AC4F11103144490
:10330000119A012A03D0012208430DD10AE0084393
:1033100004D000204FF0110B119072E7A3EB0B05C6
:103320006D1E0DE05B4504DD4FF0000205F1010567
:1033300004E003DA4FF00002A5F10105002AECD009
:1033400002981199C0E90231C0E9004579E700000F
:10335000000014400000F03F300000000000F04387
:103360000000E03F2DE9FF4F95B09B468946064699
:1033700000250FE2252877D100242746F84A0121AD
:10338000059400E0044316F8013F203B01FA03F0E6
:103390001042F7D130782A2811D06FF02F033078FF
:1033A000A0F13002092A16D8059A44F0020402EB73
:1033B000820203EB42021044761C0590EFE759F8B5
:1033C000042B0592002A03DA504244F4005405907D
:1033D00044F00204761C30782E2816D116F8010F1E
:1033E00044F004042A280DD06FF02F023078A0F1A9
:1033F0003003092B09D807EB870302EB4303C718F7
:10340000761CF3E759F8047B761C30786C280FD0D3
:1034100006DC4C2817D068280DD06A2814D104E0A7
:10342000742810D07A280FD10DE044F400140AE07B
:1034300044F4801401E044F440147278824202D1D2
:1034400004F58014761C761C307866280BD013DCCB
:10345000582877D009DC002875D04528F6D04628B2
:10346000F4D047281AD19DE118E0632835D06428AC
:1034700079D0652812D195E1702873D008DC6728CF
:10348000F1D069286FD06E280DD06F2806D1B5E035
:1034900073282CD0752875D0782874D05A4617997F
:1034A00090476D1C75E1C4F30250022809D003282F
:1034B0000DD0D9F8001004280DD00D6009F10409D1
:1034C00067E1D9F80010EA17C1E90052F6E7D9F828
:1034D00000100D80F2E70D70F0E719F8041B8DF86D
:1034E000001000208DF80100EA46012003E059F8A1
:1034F00004AB4FF0FF3061074FF0000102D40DE044
:1035000008F101018846B9420FDA8045F8DB1AF864
:1035100008100029F4D108E008F101018846814231
:10352000FADB1AF808100029F6D105985B46A0EBE3
:10353000080721463846179A00F094FA284400EB11
:10354000080507E04DE029E10DE01AF8010B5A46A5
:1035500017999047B8F10108F7D25B4621463846E3
:10356000179A13E142E00A220092C4F302524FF08C
:10357000000A022A08D059F804CB032A4FEAEC715A
:103580000AD00DE029E02AE009F1070121F0070245
:10359000F2E802C1914609E00FFA8CFC4FEAEC71A7
:1035A000042A03D14FFA8CFC4FEAEC71002907DAA8
:1035B0000A460021DCF1000C61EB02012D2202E041
:1035C000220504D52B228DF80420012203E0E20716
:1035D00001D02022F7E7904659E00A2102E01022AC
:1035E0000DE010214FF0000A00910BE010224FF087
:1035F000000A44F004040827009203E008224FF078
:10360000000A0092C4F30252022A05D059F804CBF2
:103610000021032A08D009E009F1070121F007027F
:10362000F2E802C1914605E01FFA8CFC042A01D1A0
:103630000CF0FF0C4FF00008220728D5702806D0A8
:10364000009B83F0100353EA0A0305D00EE04022EA
:103650008DF80420012208E05CEA010206D0302245
:103660008DF804208DF8050002229046009B83F01F
:10367000080353EA0A030AD15CEA010201D1620796
:1036800005D530228DF804204FF001087F1E582800
:1036900004D034A003900EA802900DE036A0F9E704
:1036A00053466046009AFCF748FF84460398825CC4
:1036B0000298401E029002705CEA0100F0D102986C
:1036C00006A9081A00F1200A600702D524F4803404
:1036D00000E00127574502DDA7EB0A0000E00020CB
:1036E00000EB0A01009005984144401A0590E00360
:1036F00006D45B462146179A059800F0B3F90544B5
:10370000002706E001A85A46C05D179990476D1C36
:103710007F1C4745F6DBE0030CD55B462146179A34
:10372000059800F09FF9054404E030205A461799A7
:1037300090476D1C0099481E00900029F5DC08E0B8
:10374000029802995A460078491C029117999047AD
:103750006D1CBAF10001AAF1010AF1DC65E100007B
:103760000928010030313233343536373839616257
:10377000636465660000000030313233343536371B
:1037800038394142434445460000000000F058F9F2
:103790000544761C307800287FF4ECAD19B028463B
:1037A000BDE8F08F620700D4062709F1070222F076
:1037B000070CFCE80223E14603F000485FEA080C2E
:1037C00002D00FF2702C0DE05FEA045C02D50FF21C
:1037D000682C07E05FEAC47C02D00FF2602C01E0A5
:1037E000AFF2700C4FF0FF3823F00043CDF850C01B
:1037F00065280CD006DC452809D046281DD047286E
:103800003DD13DE0662818D067287ED138E0002100
:10381000112F01DB112000E0781CCDE9000106A981
:103820000EA8FFF7DDFCDDE90F010E9A03910021E0
:10383000009207F1010A04914DE04FF0004000971B
:10384000CDE9011006A90EA8FFF7CAFCDDE90F02B9
:1038500003920E9B11990022DDF80CA000930492B4
:1038600011B9791C00EB010AB7EB0A0004D4C0F1CE
:10387000FF3007F1010A0490AAEB0700019044E031
:10388000012F00DA01270021112F01DD112000E0B6
:103890003846CDE9000106A90EA8FFF7A1FCDDE935
:1038A0000F010E9A0391002104910092BA4621075C
:1038B0000CD40399514500DA8A46BAF1010F05DDAF
:1038C000009AAAF10101515C302908D0B84202DA0D
:1038D00010F1040F06DA0121CDE9011015E0AAF17B
:1038E0000101E9E7002805DC049901440491AAEBF1
:1038F000000102E0411C514500DD8A460499401A4E
:10390000401C01904FF000400290200704D4019821
:10391000504501DBCDF8048000208DF84F0002985F
:103920000DF14F07B0F1004F25D02B200E900298DB
:103930004FF0020800280CDA404202902D200E9031
:1039400007E00A210298FCF7E2FD3031029007F807
:10395000011DB8F10001A8F10108F2DC029800286D
:10396000EFD1791E0E980870307800F0200040F0FA
:10397000450007F8020D12A8C01B00F107081498B3
:10398000007800B1012000EB0A01019801EBE07121
:1039900005984144401A401E0590E00306D45B465A
:1039A0002146179A059800F05DF8054414980078B0
:1039B00018B15A46179990476D1CE00324D55B4611
:1039C0002146179A059800F04DF805441CE004982C
:1039D000002807DBDDE90301884203DD0098405C35
:1039E000179901E0179930205A469047049805F13D
:1039F0000105401C04900198401E019004D12E2026
:103A00005A46179990476D1CBAF10001AAF1010AB4
:103A1000DDDC05E017F8010B5A46179990476D1C3D
:103A2000B8F10001A8F10108F4DC5B462146179AC1
:103A30000598ABE62D0000002B00000020000000E0
:103A40002DE9F041044600251E461746880404D49B
:103A500005E039462020B0476D1C641EF9D5284684
:103A6000BDE8F0812DE9F041044600251E46904650
:103A7000C80301D5302700E02027880404D505E0DD
:103A800041463846B0476D1C641EF9D52846BDE84E
:103A9000F081000013B50A23012269460248FEF7AF
:103AA000B9FA00981CBD00006001002010B5002884
:103AB00021D0114B0022001F196803E0814203D876
:103AC0000A4649680029F9D152B11368841A9C4208
:103AD00004D1006818441060104602E0506000E015
:103AE000186039B102680B1A934203D10B681A446B
:103AF00002604968416010BD200000202DE9F04DB2
:103B0000C84A002490B0914205DA21F00043934264
:103B100001D805D120B110B0BDE8F04DFFF742BB90
:103B2000B1F5801F1BDA53EA000209D0002911DA2F
:103B30000120FFF74FFB10B0BDE8F04DFFF735BB9C
:103B40000220FFF747FBFFF725FB10B081F0004193
:103B5000BDE8F08D6FF035043622FCF78DFC04EBE8
:103B60002152C1F31308B049A2F2FF33414401F4DA
:103B7000801282F07F6103EB225281F0405100926B
:103B800041EA08010022A94BFCF78FFB044608F12B
:103B90000200A74EC0F313000D467E44032867D2EF
:103BA000D6E900232046FCF7D7FD1ED10098002857
:103BB00002BFD6E9000110B0BDE8F08DFCF7A3FD0F
:103BC00007460C469B4A9C4BFCF775FB06460D4688
:103BD0009A4A9B4B38462146FCF76DFB10B03246A3
:103BE0002B46BDE8F04DFCF7BFBA4FF05532954B70
:103BF00020462946FCF75FFB0022934BFCF758FB5D
:103C000006460F4622462B4610461946FCF753FB44
:103C100032463B46FCF74FFB064600980F46F0B194
:103C2000FCF771FD80468A46824A834BFCF743FBD2
:103C300032463B46FCF73CFB22462B46FCF735FB65
:103C400005460C467D4A7E4B40465146FCF733FB09
:103C500010B02A462346BDE8F04DFCF726BB0B46C4
:103C600010B0324620462946BDE8F04DFCF71DBB9A
:103C700000224FF080432046FCF776FA02460B46BE
:103C800020462946FCF789FB06460F460098FCF7BC
:103C90003AFDCDE9040132463B4610463946FCF771
:103CA0000AFB0C9069480C9A4044019009910B461C
:103CB0001046FCF700FB8246024665488B46C8F179
:103CC00051080B4608F5D72803217844FFF70CFA72
:103CD00052465B46FCF7EFFA0A905E480D91524659
:103CE0005B4604217844FFF7FFF9099B0C9AFCF727
:103CF000E2FA844601980D9B40EA080860460A9A59
:103D0000FCF732FA83460891B8F1000F4EDD4FF010
:103D1000FF3220462946FCF7AFFB22462B46FCF734
:103D2000CAFA804600988A4660B3DDE90401414A38
:103D3000414BFCF7C0FA099100905A464046514663
:103D4000089BFCF711FA32463B46FCF7B4FA099B94
:103D5000009AFCF709FA42465346FCF7A9FA2246B4
:103D60002B46FCF7A2FA04460D46DDE90401334A6E
:103D7000334BFCF7A0FA10B022462B46BDE8F04DBD
:103D8000FCF793BA5A464046089BFCF7EDF93246D9
:103D90003B46FCF790FA42465346FCF789FA10B0CE
:103DA00022462B46BDE8F04DFCF782BA009840B39E
:103DB000DDE904011F4A204BFCF77DFA80468A4664
:103DC0005A4620462946089BFCF76FFA32463B4686
:103DD000FCF771FA42465346FCF767FA22462B4637
:103DE000FCF763FA04460D46DDE90401134A144B5F
:103DF000FCF761FA10B022462B46BDE8F04DFCF707
:103E000054BA0B465A4620462946FCF74EFA32462B
:103E10003B46FCF750FA10B022462B46BDE8F04D69
:103E2000FCF746BA0000F07F645F09000000F03F35
:103E30007A070000763C7935EF39EA3D0000E0FE74
:103E4000422EE63F5555D53F0000E03F86EBF9FF97
:103E500012060000100600000EB54FF0000B5F4682
:103E60005E465D46FDF792FAFEF7F9FFFEF7C4FEE7
:103E70004A484949002401604FF41651C0E9011431
:103E80000C21C460C0E904418461C461FEF726F8D6
:103E9000FEF792FEFEF738FFFEF752FF4148404919
:103EA0004FF4804801604049C0E90114C0E903486B
:103EB00044618461C4610462FDF7D6F801223B4984
:103EC0003648FEF77DF837483038FCF709FFDFF851
:103ED000E0A0012211465046FDF7BBF8FEF7E6FBD5
:103EE0004FF6FF794846FEF7CDFB0120FEF746FD71
:103EF0000121CDE900190A22002311462DA0FEF769
:103F00009DFB01224FF4FA6311461046FEF70CFEAA
:103F10006420FCF797FF01224FF4966311460020BE
:103F2000FEF702FEA14644463046FCF7C1FA804641
:103F300038460291FCF7BCFA064628460191FCF788
:103F4000B7FA0F46054621465046FDF77DF8024672
:103F500021461F48FDF77DF842461EA0029BFFF751
:103F6000A3F8324620A0019BFFF79EF82A463B4665
:103F700021A0FFF799F8594624A0FFF795F80422ED
:103F8000072311460120CDF80090FEF757FD4FF4AE
:103F90009670FCF757FFD6E700380140600100201B
:103FA000005400405C000020A086010004000020B6
:103FB000000C014046505320544553542C203430BB
:103FC000206C6F6F7020322073637265656E7300B2
:103FD00000100140646F6E67206469656E3A2025A9
:103FE000352E32660A0000006469656E2061703A01
:103FF0002025352E32660A00636F6E672073756167
:10400000743A2025352E32660A00000049443A20D1
:104010002535640A00000000F0B50B30154D20F086
:1040200007010024144A0FE003688B420BD38B4234
:1040300005D95E1A43184768C3E9006700E0436882
:10404000136002C004E0021D10680028ECD1204675
:10405000002802D1286808B10020F0BD064A0748B0
:104060001060074A121A22F00702C0E9002401205A
:104070002860D7E72400002020000020A4010020B1
:10408000A00300200000000000005C000000000011
:10409000060006000000287C287C28005C54FE54A2
:1040A0007400442010084400285454205000060096
:1040B0000000000038440000000044380000000008
:1040C00002070200000010107C101000C000000069
:1040D00000001010101010004000000000006010E0
:1040E0000C0000007C64544C7C00487C40000000C4
:1040F000645454544800445454546C003C20702080
:1041000020005C54545424007C545454740004041F
:1041100064140C007C5454547C005C5454547C0053
:10412000440000000000C40000000000102844000B
:10413000000028282828280044281000000008042F
:10414000540800007C4454545C007C2424247C00EB
:104150007C5454546C007C44444444007C444444A7
:1041600038007C54545444007C14141404007C44DF
:10417000445474007C1010107C0044447C4444007F
:10418000604040447C007C10102844007C4040404B
:1041900040007C0810087C007C0810207C0038441B
:1041A000444438007C14141408003C2464243C006B
:1041B0007C14141468005C545454740004047C048B
:1041C00004007C4040407C000C3040300C003C40FF
:1041D00030403C004428102844000C1060100C00B3
:1041E0004464544C44007C44000000000C10600007
:1041F0000000447C0000000000010001000040407D
:10420000404040400001000000007C2424247C0049
:104210007C5454546C007C44444444007C444444E6
:1042200038007C54545444007C14141404007C441E
:10423000445474007C1010107C0044447C444400BE
:10424000604040447C007C10102844007C4040408A
:1042500040007C0810087C007C0810207C0038445A
:10426000444438007C14141408003C2464243C00AA
:104270007C14141468005C545454740004047C04CA
:1042800004007C4040407C000C3040300C003C403E
:1042900030403C004428102844000C1060100C00F2
:1042A0004464544C4400107C440000006C00000046
:1042B0000000447C10000000020102010000000028
:1042C00000000000000000000000000001020304E4
:1042D00006070809000000000102030400000000B6
:1042E00004FA97999999D93FAF788E1DC571CC3F43
:1042F0009FC678D0099AC33F935555555555E53F0C
:10430000599322942449D23FDE03CB966446C73F9B
:1043100044523EDF12F1C23F0000000000000000E6
:1043200040430008000000202C000000B6310008C7
:104330006C4300082C00002074070000C631000800
:10434000F00040010000000000000000010000003B
:1043500010000000000000000024F4000000000035
:0C43600000000000000000000000000051
:04000005080000ED02
:00000001FF
